01000000060112010000000000000000000000000000000000000000000000000000080300000000
0200641019ABTR      ABETRANS       IL0006410190010000000000001010940020000000000
0200303016ADC-M      AD CONSTRUCT-MIL0003030165010000000000001010950010000000000
0201820083ADGR      ADGAR INV.     IL0018200837010000000000001010950010000000000
0201820117ADGR.B4   ADGAR        B4IL0018201173010000000000005010620020000000000
0201820091ADGR.W7   ADGAR        W7IL0018200910010000000000002010950010000000000
0200279018ADLE      ADLER          IL0002790181010000000000001010950010000000000
0201080688ADRN-M           ADIRON-MIL0010806888010000000000001010970010000000000
0200263012ADUM      ADUMIM         IL0002630122010000000000001010960010000000000
0200679019ADVT      ADVANTECH      IL0006790195010000000000001010940040000000000
0201081488AFCT       AFCON  CONTROLIL0010814882010000000000001010960040000000000
0201081926AFEM      AFCON ELECTRO  IL0010819261010000000000001010960040000000000
0200509018AFHO      AFRICA HOTELS  IL0005090183010000000000001010940030000000000
0205090048AFHO.C2   AFRICA HOTEL C2IL0050900484010000000000003010940030000000000
0205090022AFHO.W2   AFRICA HOTEL W2IL0050900229010000000000002010940030000000000
0200578013AFIN            AFCON INDIL0005780130010000000000001010960040000000000
0205780036AFIN.W1   AFCON IND    W1IL0057800364010000000000002010960040000000000
0201091354AFPR      AFRICA PROERT. IL0010913544010000000000001010950010000000000
0201091388AFPR.C2   AFRICA PROP. C2IL0010913882010000000000003010950010000000000
0201091362AFPR.W1   AFRICA PROP. W1IL0010913627010000000000002010950010000000000
0201081058AFSK      AFSK           IL0010810583010000000000001010960040000000000
0201091032AFSK.C1   AFSK         C1IL0010910326010000000000003010960040000000000
0201091008AFSK.W1   AFSK         W1IL0010910086010000000000002010960040000000000
0201091016AFSK.W2   AFSK         W2IL0010910169010000000000002010960040000000000
0200389015AGRI      AGRI           IL0003890154010000000000001010970010000000000
0200625012ALBA      ALBAAD         IL0006250125010000000000001010960070000000000
0201084003ALD       A.L.D.         IL0010840036010000000000001010940040000000000
0200390013ALHE      ALONY HETZ     IL0003900136010000000000001010950010000000000
0203900099ALHE.B3   ALONY HETZ   B3IL0039000992010000000000005010620020000000000
0203900057ALHE.C2   ALONY HETZ   C2IL0039000570010000000000003010950010000000000
0203900149ALHE.C4   ALONY HETZ   C4IL0039001495010000000000003010950010000000000
0203900131ALHE.W8   ALONY HETZ   W8IL0039001313010000000000002010950010000000000
0200457010ALIN      ALLIANCE       IL0004570102010000000000001010960060000000000
0204570024ALIN.B1       ALLIANCE B1IL0045700247010000000000005010620020000000000
0200336016ALON      ALONY          IL0003360166010000000000001010960050000000000
0200146019ALRO      ALROV          IL0001460190010000000000001010950010000000000
0201460070ALRO.B7   ALROV        B7IL0014600709010000000000005010620020000000000
0201460039ALRO.C4   ALROV        C4IL0014600394010000000000003010950010000000000
0201460021ALRO.W5   ALROV        W5IL0014600212010000000000002010950010000000000
0200387019ALRPR     ALROV PROPERT  IL0003870198010000000000001010950010000000000
0200340018ALUM-M    ALUMAYER     -MIL0003400186010000000000001010960030000000000
0200654012AMAN      AMANET         IL0006540129010000000000001010940020000000000
0201092824AMCP.B1   AMPA CAPITAL B1IL0010928245010000000000005010620020000000000
0201092204AMRK      AMIR MARK.     IL0010922040010000000000001010940010000000000
0201092220AMRK.C1   AMIR MARK.   C1IL0010922206010000000000003010940010000000000
0201092212AMRK.W1   AMIR MARK.   W1IL0010922123010000000000002010940010000000000
0201085141AMS       A.M.S. ELECTRO IL0010851413010000000000001010960040000000000
0200180018ANGL      ANGEL SALOMON  IL0001800189010000000000001010960010000000000
0201080613ANLT      ANALYST        IL0010806136010000000000001010940050000000000
0201084789AOC       A ONLINE       IL0010847890010000000000001010940040000000000
0200731018ARAD      ARAD           IL0007310183010000000000001010970010000000000
0201085265ARAN      ARAN       0.01IL0010852650010000000000001010940020000000000
0201091651ARD       ARAD        0.1IL0010916513010000000000001010960040000000000
0201091677ARD.C1    ARAD         C1IL0010916778010000000000003010960040000000000
0201091669ARD.W1    ARAD         W1IL0010916695010000000000002010960040000000000
0200782011ARDN      ARLADAN        IL0007820116010000000000001010970010000000000
0200617035ARGM      ARGAMAN        IL0006170356010000000000001010960020000000000
0200356014ARMD      ARYT MEDICAL   IL0003560146010000000000001010970010000000000
0200462010ARPA      ARPAL          IL0004620105010000000000001010940010000000000
0200138016ARZM      ARAZIM         IL0001380166010000000000001010950010000000000
0201380047ARZM.B2   ARAZIM       B2IL0013800474010000000000005010620020000000000
0201380054ARZM.C3   ARAZIM       C3IL0013800540010000000000003010950010000000000
0201380062ARZM.W3   ARAZIM       W3IL0013800623010000000000002010950010000000000
0200313015ASBD       ASPEN BUILDINGIL0003130155010000000000001010950010000000000
0200305011ASHL      ASHLAD         IL0003050114010000000000001010950010000000000
0200312017ASHO      ASHOT          IL0003120172010000000000001010960030000000000
0201092683ASIA.B1   ASIA         B1IL0010926835010000000000005010700060000000000
0200128017ASPJ      ASHTROM PROJ   IL0001280176010000000000001010950010000000000
0200251017ASPR      ASHTROM PROP   IL0002510175010000000000001010950010000000000
0200548016ASPT      ASPEN PROP     IL0005480160010000000000001010950010000000000
0200437012ASRE      ASPEN REAL ESTAIL0004370123010000000000001010950010000000000
0204370037ASRE.B2   ASPEN REAL   B2IL0043700371010000000000005010620020000000000
0204370045ASRE.B3   ASPEN REAL   B3IL0043700454010000000000005010700060000000000
0200373019AURA      AURA           IL0003730194010000000000001010970010000000000
0200675017AVER      AVERBUCH       IL0006750173010000000000001010940010000000000
0200413013AVIA      AVIATION LINKS IL0004130139010000000000001010940030000000000
0200444018AVIV      AVIV           IL0004440181010000000000001010950010000000000
0204440053AVIV.C3    AVIV        C3IL0044400534010000000000003010950010000000000
0200268011AVNR.L    AVNER         LIL0002680119010000000000012010980010000000000
0200297010AVRT      AVROT          IL0002970106010000000000001010960030000000000
0202970085AVRT.B3   AVROT        B3IL0029700858010000000000005010620020000000000
0202970093AVRT.W3   AVROT        W3IL0029700932010000000000002010960030000000000
0201083856AVS       AVIV SOLUTION  IL0010838568010000000000001010940040000000000
0200209015AYAL      AYALON         IL0002090152010000000000001010930010000000000
0200715011AZRM      AZORIM         IL0007150118010000000000001010950010000000000
0207150204AZRM.B7   AZORIM       B7IL0071502046010000000000005010620020000000000
0207150154AZRM.C5   AZORIM       C5IL0071501543010000000000003010950010000000000
0201085075AZTC      AZIMUTH TECHNO IL0010850753010000000000001010960040000000000
0201080548BARK      BARKAN         IL0010805484010000000000001010960010000000000
0200278010BCEL      BIOCELL        IL0002780109010000000000001010970010000000000
0200163014BDRC      BUILDING RES   IL0001630149010000000000001010950010000000000
0201093954BEST.B1   BEST ISSU    B1IL0010939549010000000000005010730020000000000
0200230011BEZQ      BEZEQ          IL0002300114010000000000001010940020000000000
0202300051BEZQ.B4   BEZEQ.       B4IL0023000511010000000000005010620020000000000
0202300069BEZQ.B5   BEZEQ        B5IL0023000693010000000000005010620020000000000
0201092709BGIR      BAGIR          IL0010927098010000000000001010960020000000000
0201092733BGIR.C1   BAGIR        C1IL0010927338010000000000003010960020000000000
0201092717BGIR.W1   BAGIR        W1IL0010927171010000000000002010960020000000000
0200735019BIRI      BIRI           IL0007350197010000000000001010950010000000000
0200530014BIRM      BIRMAN         IL0005300145010000000000001010960070000000000
0205300025BIRM.B1         BIRMAN B1IL0053000258010000000000005010620020000000000
0205300033BIRM.W2         BIRMAN W2IL0053000332010000000000002010960070000000000
0205300041BIRM.W3         BIRMAN W3IL0053000415010000000000002010960070000000000
0201085489BLOH      BLOCH ROTSTIEN IL0010854896010000000000001010950010000000000
0200101014BLSD      BOULOS GAD     IL0001010144010000000000001010950010000000000
0201010032BLSD.C2   BOULOS GAD   C2IL0010100324010000000000003010950010000000000
0200223016BLSQ      BLUE SQUARE PROIL0002230162010000000000001010940010000000000
0200368019BMDX      BIOMEDIX       IL0003680191010000000000001010970010000000000
0200605030BNIN-M    BINYAN-M       IL0006050301010000000000001010970010000000000
0201095223BOLT       BIO LIGHT 0.01IL0010952237010000000000001010970010000000000
0201095231BOLT.W1   BIO LIGHT    W1IL0010952310010000000000002010970010000000000
0201095249BOLT.W2   BIO LIGHT    W2IL0010952492010000000000002010970010000000000
0200531012BOTI       BONEI TICHON  IL0005310128010000000000001010950010000000000
0205310016BOTI.B1   BONEI TICHON B1IL0053100165010000000000005010620020000000000
0205310024BOTI.B2   BONEI TICHON B2IL0053100249010000000000005010620020000000000
0205310040BOTI.B3   BONEI TICHON B3IL0053100405010000000000005010620020000000000
0205310057BOTI.WB3  BONE TICHON WB3IL0053100579010000000000015010620020000000000
0205310032BOTI.W2   BONEI TICHON W2IL0053100322010000000000002010950010000000000
0201094515BRAM           BRAM INDUSIL0010945157010000000000001010960060000000000
0201094523BRAM.C1   BRAM INDUS   C1IL0010945231010000000000003010960060000000000
0200286013BRAN      BARAN          IL0002860133010000000000001010940020000000000
0202860088BRAN.B1   BARAN        B1IL0028600885010000000000005010620020000000000
0202860104BRAN.WB3  BARAN       WB3IL0028601040010000000000015010620020000000000
0202860096BRAN.W2   BARAN        W2IL0028600968010000000000002010940020000000000
0200399014BRIL      BRILL          IL0003990145010000000000001010960020000000000
0203990017BRIL.C1   BRILL        C1IL0039900175010000000000003010960020000000000
0201094283BRMG      BRIMAG     0.01IL0010942832010000000000001010940010000000000
0201094309BRMG.C1   BRIMAG       C1IL0010943095010000000000003010940010000000000
0200536011BRND      BRAND          IL0005360115010000000000001010960030000000000
0201081561BSEN      BET SHEMESH    IL0010815616010000000000001010960030000000000
0200117010BSR       BSR EUROPE     IL0001170104010000000000001010950010000000000
0201170141BSR.B8    BSR ERO      B8IL0011701419010000000000005010620020000000000
0201170091BSR.C7    BSR EUROPE   C7IL0011700916010000000000003010950010000000000
0201170059BSR.W2    BSR EUROPE   W2IL0011700593010000000000002010950010000000000
0201170109BSR.W4    BSR EUROPE   W4IL0011701096010000000000002010950010000000000
0200395012BSRP         BSR PROJECTSIL0003950123010000000000001010950010000000000
0203950086BSRP.C1   BSR PROJEC   C1IL0039500868010000000000003010950010000000000
0203950045BSRP.W2   BSR PROJECTS W2IL0039500454010000000000002010950010000000000
0203950094BSRP.W3   BSR PROJEC   W3IL0039500942010000000000002010950010000000000
0201094606BSSC             B.S.S.CHIL0010946064010000000000001010930010000000000
0202459998BSTR.B1   BUS TERMINAL B1IL0024599982010000000000005010620020000000000
0201095009BYAR.B1       B.YAIR   B1IL0010950090010000000000005010620020000000000
0201095033BYAR.B2       B.YAIR   B2IL0010950330010000000000005010620020000000000
0201095017BYAR.WB1  B.YAIR      WB1IL0010950173010000000000015010620020000000000
0207590052BYSD.B2   BAYSIDE LAND B2IL0075900527010000000000005010620020000000000
0200759019BYSD1     BAYSIDE LAND  1IL0007590198010000000000001010950010000000000
0200759035BYSD5     BAYSIDE LAND  5IL0007590354010000000000001010950010000000000
0200280016CAST      CASTRO         IL0002800162010000000000001010960020000000000
0200810010CDEV      COHEN DEVL     IL0008100104010000000000001010950010000000000
0200621011CDSS      STORAGE        IL0006210111010000000000001010960010000000000
0200790014CESA      CAESAREA       IL0007900140010000000000001010950010000000000
0201094473CFBI         CAN FITE BIOIL0010944739010000000000001010960060000000000
0201094481CFBI.W1   CAB FITE BIO W1IL0010944812010000000000002010960060000000000
0200342014CHAM      CHAM           IL0003420143010000000000001010960010000000000
0203420031CHAM.C1   CHAM         C1IL0034200316010000000000003010960010000000000
0201080589CHAY      CHAYON         IL0010805898010000000000001010940040000000000
0200281014CHIM      ICL            IL0002810146010000000000001010960060000000000
0209268038CH2680       CHACHAR 2680IL0092680383010000000000004110520020000000000
0209268137CH2681       CHACHAR 2681IL0092681373010000000000004110520020000000000
0209268236CH2682       CHACHAR 2682IL0092682363010000000000004110520020000000000
0201080241CIDA      CIDAV          IL0010802416010000000000001010960040000000000
0200608018CII       CLAL INDUSTRIESIL0006080183010000000000001010960080000000000
0206080170CII.B12    CLAL INDUS.B12IL0060801706010000000000005010620020000000000
0206080188CII.B13   CLAL INDUS .B13IL0060801888010000000000005010620020000000000
0201080779CINR      CHIM NIR       IL0010807795010000000000001010940020000000000
0200442012CISY      C I SYSTEMS    IL0004420126010000000000001010960040000000000
0201081405CJE.B1    CAPRICE      B1IL0010814056010000000000005010620020000000000
0201081413CJE.C2-M  CAPRICE    C2-MIL0010814130010000000000003010960080000000000
0201080829CJE-M     CAPRICE      -MIL0010808298010000000000001010960080000000000
0200224014CLIS      CLAL INSURANCE IL0002240146010000000000001010930010000000000
0200507012CMDR      COMPUTER DIRECTIL0005070128010000000000001010940040000000000
0200338012CMER      MER            IL0003380123010000000000001010960040000000000
0200515015CMPL      CHEMIPAL       IL0005150151010000000000001010940010000000000
0201084292CMSC               COMSECIL0010842925010000000000001010940040000000000
0200337014CMTC      COMTEC         IL0003370140010000000000001010940040000000000
0202690071CNM.W4     CINEMA   WL9  IL0026900717010000000000002040940020000000000
0200269019CNMA.L     CINEMA L      IL0002690191010000000000012010940020000000000
0200489013COMT      COMTRANS       IL0004890138010000000000001010970010000000000
0201086297CRGR      CARMEL GROUP   IL0010862972010000000000001010970010000000000
0201081249CRHO      CARMEL HOLDINGSIL0010812498010000000000001010940010000000000
0201094903CRHO.C1   CARMEL HOL   C1IL0010949035010000000000003010940010000000000
0201094911CRHO.WC2  CARMEL HOL  WC2IL0010949118010000000000002020940010000000000
0201094895CRHO.W1   CARMEL HOL   W1IL0010948953010000000000002010940010000000000
0200440016CRMT      CARMIT         IL0004400169010000000000001010960010000000000
0200258012CRSL      CRYSTAL CONSUMEIL0002580129010000000000001010940010000000000
0200716019CTPL1     CITRUS PLANT  1IL0007160190010000000000001010950010000000000
0200716035CTPL5     CITRUS PLANT  5IL0007160356010000000000001010950010000000000
0200574012CTRC5     CONTRACTORS   5IL0005740126010000000000001010950010000000000
0200579011DAFR      DAFRON         IL0005790113010000000000001010960070000000000
0200314013DANE      DANEL          IL0003140139010000000000001010940020000000000
0203140050DANE.B2   DANEL        B2IL0031400505010000000000005010620020000000000
0203140019DANE.W2   DANEL        W2IL0031400190010000000000002010940020000000000
0203140043DANE.W3   DANEL        W3IL0031400430010000000000002010940020000000000
0200822015DANH      DAN   HOTELS   IL0008220159010000000000001010940030000000000
0200162016DANL      DANLEY         IL0001620165010000000000001010950010000000000
0200111013DCI       DIRECT CAPITA  IL0001110134010000000000001010950010000000000
0200241018DCL       DCL            IL0002410186010000000000001010940040000000000
0200475020DEDR.L    DELEK DRILLIN LIL0004750209010000000000012010980010000000000
0200319012DEJG      DJG            IL0003190126010000000000001010940020000000000
0200565010DEOL      DELEK ENERGI   IL0005650101010000000000001010980010000000000
0200264010DGEM      DEGEM          IL0002640105010000000000001010960040000000000
0201083682DIFI      DIRECT INSURANCIL0010836828010000000000001010930010000000000
0200493015DIGL      DIGAL          IL0004930157010000000000001010950010000000000
0201090315DIMRI     DIMRI          IL0010903156010000000000001010950010000000000
0201093129DIMRI.B2  DIMRI        B2IL0010931298010000000000005010620020000000000
0201090331DIMRI.C1  DIMRI        C1IL0010903313010000000000003010950010000000000
0201090323DIMRI.W1  DIMRI        W1IL0010903230010000000000002010950010000000000
0201093137DIMRI.W2  DIMRI        W2IL0010931371010000000000002010950010000000000
0200639013DISI      DISCOUNT INV   IL0006390137010000000000001010970010000000000
0206390140DISI.B3   DISCOUNT INV B3IL0063901404010000000000005010620020000000000
0206390157DISI.B4   DISCONT INV  B4IL0063901578010000000000005010620020000000000
0206390165DISI.C5   DISCOUNT INV C5IL0063901651010000000000003010970010000000000
0201084433DJCE             DATA JCEIL0010844335010000000000001010940010000000000
0200829010DLEA      DELEK AUTOMOTIVIL0008290103010000000000001010940010000000000
0201084128DLEKG     DELEK GROUP    IL0010841281010000000000001010970010000000000
0203740024DLKI.B1   DELEK INTER  B1IL0037400244010000000000005010620020000000000
0201093293DLKR      DELEK RE ES    IL0010932932010000000000001010950010000000000
0201093319DLKR.B4   DELEK RE ES  B4IL0010933195010000000000005010620020000000000
0201093301DLKR.C3   DELEK RE ES  C3IL0010933013010000000000003010950010000000000
0200607010DMBK      DISCOUNT MORT  IL0006070101010000000000001010900010000000000
0201080720DMDC            D MEDICALIL0010807209010000000000001010970010000000000
0201093053DMDC.W2      D MEDICAL W2IL0010930530010000000000002010970010000000000
0200367011DNTE      DANBAR TECH    IL0003670119010000000000001010970010000000000
0201084144DNYA      DANYA CEBUS    IL0010841448010000000000001010950010000000000
0200372011DORA      DOREA          IL0003720112010000000000001010950010000000000
0203720034DORA.B1   DOREA        B1IL0037200347010000000000005010620020000000000
0203720042DORA.W1    DOREA       W1IL0037200420010000000000002010950010000000000
0203720059DORA.W2          DOREA W2IL0037200594010000000000002010950010000000000
0201080860DORC      DOR CHEMICALS  IL0010808603010000000000001010960060000000000
0200473017DORI      DORI ENG       IL0004730177010000000000001010950010000000000
0204730024DORI.B1   DORI ENG     B1IL0047300244010000000000005010620020000000000
0204730065DORI.B3   DORI ENG     B.IL0047300657010000000000005010620020000000000
0204730057DORI.C2   DORI ENG     C2IL0047300574010000000000003010950010000000000
0204730040DORI.W1   DORI ENG     W2IL0047300400010000000000002010950010000000000
0200302018DOROT     DOROT          IL0003020182010000000000001010950010000000000
0201093202DRAL      DOR ALON       IL0010932023010000000000001010940020000000000
0201093244DRAL.B2   DOR ALON     B2IL0010932445010000000000005010620020000000000
0201093236DRAL.C1   DOR ALON     C1IL0010932361010000000000003010940020000000000
0201093210DRAL.W1   DOR ALON     W1IL0010932106010000000000002010940020000000000
0201093228DRAL.W2   DOR ALON     W2IL0010932288010000000000002010940020000000000
0200411017DRBN      DARBAN         IL0004110172010000000000001010950010000000000
0204110060DRBN.B3   DARBAN       B3IL0041100608010000000000005010620020000000000
0204110029DRBN.C2   DARBAN       C2IL0041100293010000000000003010950010000000000
0200599019DROM-M     DI ROM      -MIL0005990192010000000000001010950010000000000
0201081843DSAP              DS APEXIL0010818438010000000000001010940050000000000
0201087634DSAP.B1   DS IPEX      B1IL0010876345010000000000005010720010000000000
0201087626DSAP.W2   DS APEX      W2IL0010876261010000000000002010940050000000000
0200691212DSCT      DISCOUNT       IL0006912120010000000000001010900010000000000
0206910079DSCT.B1    DISCONT    B.1IL0069100795010000000000005010620020000000000
0201081348DSIN      DS INV         IL0010813488010000000000001010940050000000000
0201094853DSMI.B1     DISCO MORT B1IL0010948532010000000000005010620020000000000
0200400010DUNI      DUNIEC         IL0004000100010000000000001010950010000000000
0201093178DVSH.SH1  DVASH       SH1IL0010931785010000000000036010750010000000000
0200459016DVT       DAN VEHICLE    IL0004590167010000000000001010940020000000000
0200198010ECJM      JERUSALEM ECON IL0001980106010000000000001010950010000000000
0201980119ECJM.B4   JERUSAL EC   B4IL0019801195010000000000005010620020000000000
0201980150ECJM.B5   JERUSAL EC   B5IL0019801500010000000000005010620020000000000
0201980036ECJM.C1   JERUSALEM ECOC1IL0019800361010000000000003010950010000000000
0201980101ECJM.C3   JERUSA EC    C3IL0019801013010000000000003010950010000000000
0201980143ECJM.W6   JERUSAL EC   W6IL0019801435010000000000002010950010000000000
0201089820EDEN.B1   EDEN         B1IL0010898208010000000000005010700060000000000
0201089838EDEN.B2   EDEN         B2IL0010898380010000000000005010700060000000000
0201090992EDEN.B3   EDEN         B3IL0010909922010000000000005010700060000000000
0201085349EIM.C1-M      E.I.M. C1-MIL0010853492010000000000003010940040000000000
0201087824ELAL      EL AL          IL0010878242010000000000001010940020000000000
0201087840ELAL.O2   EL AL        O2IL0010878408010000000000013010940020000000000
0201087857ELAL.W1   EL AL        W1IL0010878572010000000000002010940020000000000
0200694034ELCO      ELCO HOLDINGS  IL0006940345010000000000001010970010000000000
0201094044ELCRE     ELECTRA REAL E.IL0010940448010000000000001010950010000000000
0201094051ELCRE.B1  ELECTRA REAL B1IL0010940513010000000000005010620020000000000
0201094069ELCRE.W1  ELECTRA REAL W1IL0010940695010000000000002010950010000000000
0200216010ELDN      ELDAN TECH     IL0002160104010000000000001010950010000000000
0202160067ELDN.C1   ELDAN TECH   C1IL0021600676010000000000003010950010000000000
0202160059ELDN.WC1  ELDAN TECH  WC1IL0021600593010000000000002020950010000000000
0202160042ELDN.W1   ELDAN TECH   W1IL0021600429010000000000002010950010000000000
0206004113ELEC.B19  ELECTRIC CO B19IL0060041139010000000000005010620020000000000
0206004139ELEC.B20  ELECTRIC CO B20IL0060041394010000000000005010620020000000000
0206000012ELEC.B21  ELECTRIC CO B21IL0060000127010000000000005010620020000000000
0206000020ELEC.B22  ELECTRIC CO B22IL0060000200010000000000005010620020000000000
0206004154ELEC.20A  ELECTRIC COB20AIL0060041543010000000000005010620020000000000
0200501015ELEK      ELECTRA CONSUMEIL0005010157010000000000001010960040000000000
0200559013ELGO      ELGO           IL0005590133010000000000001010960060000000000
0200638015ELIN      ELRAN    INVESTIL0006380153010000000000001010970010000000000
0206380026ELIN.C1   ELRAN  IVEST C1IL0063800267010000000000003010970010000000000
0206380075ELIN.C2   ELRAN INV    C2IL0063800754010000000000003010970010000000000
0206380067ELIN.W2   ELRAN INV    W2IL0063800671010000000000002010970010000000000
0201090364ELSPC     ELSPEC     0.01IL0010903644010000000000001010960040000000000
0201090372ELSPC.W1  ELSPEC       W1IL0010903727010000000000002010960040000000000
0201090380ELSPC.W2  ELSPC        W2IL0010903800010000000000002010960040000000000
0200739037ELTR      ELECTRA        IL0007390375010000000000001010970010000000000
0200382010EMCO      E&M            IL0003820102010000000000001010940040000000000
0200589010EMDV      EMILIA DEVEL   IL0005890103010000000000001010970010000000000
0200818013ENGR1         ENGEL EUR 1IL0008180130010000000000001010950010000000000
0200818039ENGR5     ENGEL EUR     5IL0008180395010000000000001010950010000000000
0200771014ENRS         ENGEL RESOURIL0007710143010000000000001010950010000000000
0207710031ENRS.C3    ENGEL RES   C3IL0077100316010000000000003010950010000000000
0207710098ENRS.C4   ENGEL RES    C4IL0077100985010000000000003010950010000000000
0207710114ENRS.W4   ENGEL RES    W4IL0077101140010000000000002010950010000000000
0200755017EQTL      EQUITAL        IL0007550176010000000000001010970010000000000
0201084326ERCM      ERICOM     0.01IL0010843261010000000000001010940040000000000
0200329011ERST             EURO SATIL0003290116010000000000001010970010000000000
0201092170ESEL.B2   ESHEL SHEKEL B2IL0010921703010000000000005010730020000000000
0201087600ETAN.B1   EITAN        B1IL0010876006010000000000005010700060000000000
0201089937EXAD.B1   EXCELLE ADIR B1IL0010899370010000000000005010700060000000000
0201093863EXAT.B1   EXCLEN ATSM B1 IL0010938632010000000000005010700060000000000
0201093871EXAT.B2    EXCLEN ATSM B2IL0010938715010000000000005010700060000000000
0201088491EXBS.B1   EXCEL BASHAN B1IL0010884919010000000000005010700060000000000
0201080639EXCE      EXCELLENCE     IL0010806391010000000000001010940050000000000
0200704015EXPO      EXPORT INV     IL0007040152010000000000001010970010000000000
0201092618EXRM.B1   EXCELENC RAM B1IL0010926181010000000000005010700060000000000
0201089507EXSA.B1   EXCLEN SAAR B1 IL0010895071010000000000005010700060000000000
0201087956EXTA.B1   EXCELEN.TAVORB1IL0010879562010000000000005010700060000000000
0200495010EXTR      EXTRA          IL0004950106010000000000001010960060000000000
0200315010FBRT      FMS            IL0003150104010000000000001010960020000000000
0200344010FELD      FELDMAN N      IL0003440109010000000000001010940010000000000
0200763011FIBI      FIBI          1IL0007630119010000000000001010900010000000000
0200144014FIJE      FIVE J         IL0001440143010000000000001010960080000000000
0200547018FILS.L    FIELDS        LIL0005470187010000000000012010980010000000000
0206740021FIMG.B45  FIB MORTGAG B45IL0067400213010000000000005010620020000000000
0201081884FLCR      FLYING CARPET  IL0010818842010000000000001010940030000000000
0201080407FNCTC     FINANCITECH-  MIL0010804073010000000000001010970010000000000
0201087022FOX       FOX        0.01IL0010870223010000000000001010960020000000000
0200593012FTIN1     INTERNATIONAL 1IL0005930123010000000000001010900010000000000
0200593038FTIN5     INTERNATIONAL 5IL0005930388010000000000001010900010000000000
0200169011FVT        FORMULA VISIONIL0001690119010000000000001010940040000000000
0201081462GAL.B1    GAL          B1IL0010814627010000000000005010620020000000000
0200494013GAMA      GAMA           IL0004940131010000000000001010960040000000000
0200402016GAMB      GAMBIT         IL0004020165010000000000001010970010000000000
0201080522GAMT      GAMATRONIC     IL0010805229010000000000001010960040000000000
0201084110GAMT.C1   GAMATRONIC   C1IL0010841109010000000000003010960040000000000
0201084102GAMT.W1   GAMATRONIC   W1IL0010841026010000000000002010960040000000000
0200406017GAT       GAON AGRO      IL0004060179010000000000001010970010000000000
0209655135GB6551    GILBOA6551     IL0096551358010000000000004020700040000000000
0201093004GDBC      GADOT BIOCCHEMIIL0010930043010000000000001010960060000000000
0201093012GDBC.C1   GADOT BICCHM C1IL0010930126010000000000003010960060000000000
0201088921GDTN        GADOT TANKERSIL0010889215010000000000001010940010000000000
0201088947GDTN.C1   GADOT TANKER C1IL0010889470010000000000003010940010000000000
0201088939GDTN.W1   GADOT TANKER W1IL0010889397010000000000002010940010000000000
0201080951GIBC      GAI BEACH      IL0010809510010000000000001010940030000000000
0200524017GILN      GILON          IL0005240176010000000000001010970010000000000
0205240049GILN.W2   GILON        W2IL0052400491010000000000002010970010000000000
0200506022GIVO.L    GIVOT         LIL0005060228010000000000012010980010000000000
0205060173GIVO.WL5  GIVOT       WL5IL0050601736010000000000002040980010000000000
0200824011GJEP        GJE PROMOTINGIL0008240116010000000000001010950010000000000
0208240038GJEP.C2   GJE PROMOT.  C2IL0082400388010000000000003010950010000000000
0208240046GJEP.W1   GJE PROMOT.  W2IL0082400461010000000000002010950010000000000
0201087667GLAD.B1   GILAAD       B1IL0010876675010000000000005010700060000000000
0200199018GLAN      GOLAN          IL0001990188010000000000001010950010000000000
0201080308GLBL      GLOBAL         IL0010803083010000000000001010940010000000000
0201090810GLDO.B1   GILBOADOLLAR B1IL0010908106010000000000005010700060000000000
0201089564GLFN2.B1   GLOBAL FIN2 B1IL0010895642010000000000005010700060000000000
0201090877GLFN3.B1  GLOBAL FINAN3B1IL0010908775010000000000005010700060000000000
0201093715GLFN5.B1   GLOBAL FIN5 B1IL0010937154010000000000005010620020000000000
0201091925GLILA.B1  GALILA DEPO  B1IL0010919251010000000000005010620020000000000
0201092121GLILA.B2  GALILA DEPO  B2IL0010921216010000000000005010620020000000000
0201092139GLILA.B3  GALILA DEPO  B3IL0010921398010000000000005010620020000000000
0201094457GLLO.B1        GALILEO B1IL0010944572010000000000005010730020000000000
0201094465GLLO.B2        GALILEO B2IL0010944655010000000000005010730020000000000
0200126011GLOB          GAZIT GLOBEIL0001260111010000000000001010950010000000000
0201260165GLOB.B1    GAZIT GLOBE B1IL0012601659010000000000005010700060000000000
0201260272GLOB.B2   GAZIT GLOBE  B2IL0012602723010000000000005010700060000000000
0201260306GLOB.B3   GAZIT GLOBE  B3IL0012603069010000000000005010620020000000000
0201091933GLPL      GOLAN PLASTIC  IL0010919335010000000000001010960060000000000
0201091958GLPL.C1   GOLAN PLAST  C1IL0010919582010000000000003010960060000000000
0201091941GLPL.W1   GOLAN PLAST  W1IL0010919418010000000000002010960060000000000
0201081777GLTS.B1   GELATS       B1IL0010817778010000000000005010700060000000000
0201093194GLTS.B2   GELATS       B2IL0010931942010000000000005010620020000000000
0209470139GL4701    GALIL 4701     IL0094701393010000000000004060570020000000000
0209470238GL4702    GALIL 4702     IL0094702383010000000000004060570020000000000
0209470337GL4703         GALIL 4703IL0094703373010000000000004060570020000000000
0209520735GL5207    GALIL 5207     IL0095207358010000000000004070570030000000000
0209520834GL5208    GALIL 5208     IL0095208349010000000000004070570030000000000
0209541533GL5415    GALIL 5415     IL0095415332010000000000004070570030000000000
0209541632GL5416    GALIL 5416     IL0095416322010000000000004070570030000000000
0209541731GL5417    GALIL 5417     IL0095417312010000000000004070570030000000000
0209541830GL5418    GALIL 5418     IL0095418302010000000000004070570030000000000
0209541939GL5419    GALIL 5419     IL0095419391010000000000004070570030000000000
0209542036GL5420    GALIL 5420     IL0095420365010000000000004070570030000000000
0209542135GL5421    GALIL 5421     IL0095421355010000000000004070570030000000000
0209542234GL5422    GALIL 5422     IL0095422346010000000000004070570030000000000
0209542333GL5423    GALIL 5423     IL0095423336010000000000004070570030000000000
0209542432GL5424    GALIL 5424     IL0095424326010000000000004070570030000000000
0209542531GL5425    GALIL 5425     IL0095425315010000000000004060570030000000000
0209542630GL5426    GALIL 5426     IL0095426305010000000000004060570020000000000
0209542739GL5427         GALIL 5427IL0095427394010000000000004060570020000000000
0209547035GL5470         GALIL 5470IL0095470352010000000000004060570020000000000
0209547134GL5471         GALIL 5471IL0095471343010000000000004060570020000000000
0209547233GL5472         GALIL 5472IL0095472333010000000000004060570020000000000
0209548033GL5480         GALIL 5480IL0095480336010000000000004060570020000000000
0209548132GL5481         GALIL 5481IL0095481326010000000000004060570020000000000
0209550138GL5501         GALIL 5501IL0095501388010000000000004060570020000000000
0209561135GL5611    GALIL 5611     IL0095611351010000000000004070570030000000000
0209561234GL5612    GALIL 5612     IL0095612342010000000000004070570030000000000
0209561333GL5613    GALIL 5613     IL0095613332010000000000004070570030000000000
0209561432GL5614    GALIL 5614     IL0095614322010000000000004070570030000000000
0209561531GL5615    GALIL 5615     IL0095615311010000000000004070570030000000000
0209570136GL5701    GALIL 5701     IL0095701368010000000000004070570030000000000
0209570235GL5702    GALIL 5702     IL0095702358010000000000004070570030000000000
0209570334GL5703    GALIL 5703     IL0095703349010000000000004070570030000000000
0209570433GL5704    GALIL 5704     IL0095704339010000000000004070570030000000000
0209570532GL5705    GALIL 5705     IL0095705328010000000000004070570030000000000
0209570631GL5706    GALIL 5706     IL0095706318010000000000004070570030000000000
0209570730GL5707    GALIL 5707     IL0095707308010000000000004070570030000000000
0209590134GL5901    GALIL 5901     IL0095901349010000000000004070570030000000000
0209590332GL5903         GALIL 5903IL0095903329010000000000004060570020000000000
0209590431GL5904         GALIL 5904IL0095904319010000000000004060570020000000000
0201086206GMUL      GMUL           IL0010862063010000000000001010970010000000000
0201086222GMUL.C1   GMUL         C1IL0010862220010000000000003010970010000000000
0201084268GMVN      GMUL VENTURES  IL0010842685010000000000001010970010000000000
0200235010GOHO      GOLDEN HOUSE   IL0002350101010000000000001010950010000000000
0202350015GOHO.B1   GOLDEN HOUSE B1IL0023500155010000000000005010620020000000000
0202350049GOHO.O4   GOLDEN HOUSE O4IL0023500494010000000000013010950010000000000
0202350031GOHO.WB1  GOLD HOUSE WB 1IL0023500312010000000000015010620020000000000
0202350023GOHO.W3   GOLDEN HOUSE W3IL0023500239010000000000002010950010000000000
0200149013GOLD      GOLD           IL0001490130010000000000001010940020000000000
0200359018GRCE      CENTER         IL0003590184010000000000001010950010000000000
0200276014GRNT      GRANITE        IL0002760143010000000000001010940020000000000
0201085778GRON      GIRON DEVELOP. IL0010857782010000000000001010950010000000000
0201089978GRON.B2   GIRON DEV.   B2IL0010899784010000000000005010620020000000000
0201088046GRON.C1   GIRON DEV.   C1IL0010880461010000000000003010950010000000000
0201088020GRON.W2   GIRON DEV.   W2IL0010880206010000000000002010950010000000000
0200532010GSFI      GAN SHMUEL     IL0005320101010000000000001010960010000000000
0204670055GSP.C2-M  GIBORSPORT C2-MIL0046700550010000000000003010970010000000000
0200467019GSP-M       GIBOR SPORT-MIL0004670191010000000000001010970010000000000
0201091081GTC       GTC         0.2NL0000414480010000000000001010950010000000000
0201091131GTC.C1    GTC          C1NL0000414514010000000000003010950010000000000
0201091107GTC.W2    GTC          W2NL0000414506010000000000002010950010000000000
0201091115GTC.W3    GTC          W3NL0000414522010000000000002010950010000000000
0200458018GTFR              GATEWAYIL0004580184010000000000001010970010000000000
0200723007GZIT      GAZIT                      010000000000001010950010000000000
0207230139GZIT.B5   GAZIT        B5            010000000000005010700060000000000
0207230279GZIT.B6   GAZIT        B6            010000000000005010620020000000000
0200343012HAHO      HACHSHARA HOTELIL0003430126010000000000001010940030000000000
0201080324HAML      HAMLET         IL0010803240010000000000001010960030000000000
0201081371HAO       H&O            IL0010813710010000000000001010940010000000000
0200585018HARL      HAREL INSURANCEIL0005850180010000000000001010930010000000000
0200392035HASI      HASSIN ESH     IL0003920357010000000000001010970010000000000
0200558015HASN      HASON          IL0005580159010000000000001010940010000000000
0205580022HASN.B1          HASON B1IL0055800226010000000000005010620020000000000
0205580030HASN.W2          HASON W2IL0055800309010000000000002010940010000000000
0200415018HBS            HABAS     IL0004150186010000000000001010950010000000000
0204150066HBS.B3          HABAS  B3IL0041500666010000000000005010620020000000000
0204150058HBS.C2    HABAS        C2IL0041500583010000000000003010950010000000000
0204150041HBS.W2    HABAS W2       IL0041500419010000000000002010950010000000000
0204150074HBS.W3    HABAS        W3IL0041500740010000000000002010950010000000000
0201088152HDS.B1    H.D.S        B1IL0010881527010000000000005010700060000000000
0201089911HDS.B2    H.D.S        B2IL0010899115010000000000005010700060000000000
0201090828HDSQR.B1  HADAS QUART. B1IL0010908288010000000000005010700060000000000
0201095405HDST          HADASIT BIOIL0010954050010000000000001010970010000000000
0201095413HDST.W1    HADASIT BIO W1IL0010954134010000000000002010970010000000000
0201095421HDST.W2    HADASIT BIO W2IL0010954217010000000000002010970010000000000
0200262014HGI-M     HGII         -MIL0002620149010000000000001010940010000000000
0200243014HLDS.L    HLDS          LIL0002430143010000000000012010980010000000000
0201084698HLTC      HILAN TEC      IL0010846983010000000000001010940040000000000
0200351015HOD       HOD            IL0003510158010000000000001010960030000000000
0200456012HOFI      HOFIT          IL0004560129010000000000001010960060000000000
0201083302HQS       HAZERA      0.1IL0010833023010000000000001010960060000000000
0200383018HRCL      HORIZON CHALLENIL0003830184010000000000001010970010000000000
0200150011HRON1     HIRON         1IL0001500110010000000000001010970010000000000
0200150037HRON5     HIRON         5IL0001500375010000000000001010970010000000000
0201081942HUCN      HOUSING & CONSTIL0010819428010000000000001010950010000000000
0200175018IBI         IBI INV HOUSEIL0001750186010000000000001010940050000000000
0200226019IBLD      INDUS BUILDING IL0002260193010000000000001010950010000000000
0202260040IBLD.B3   INDUS BUILD  B3IL0022600402010000000000005010620020000000000
0202260081IBLD.B5    INDUS BUILD B5IL0022600816010000000000005010700060000000000
0202260099IBLD.B6   INDUS BUILD  B6IL0022600998010000000000005010620020000000000
0202260115IBLD.B7   INDUS BUILD  B7IL0022601152010000000000005010620020000000000
0202260131IBLD.B8    INDUS BUILD B8IL0022601319010000000000005010620020000000000
0202260073IBLD.C4   INDUS BUILD  C4IL0022600733010000000000003010950010000000000
0202260065IBLD.W5   INDUS BUILD  W5IL0022600659010000000000002010950010000000000
0200798017IDBD      IDB DEVELOPMENTIL0007980175010000000000001010970010000000000
0207980055IDBD.B2   IDB DEVELOP  B2IL0079800558010000000000005010620020000000000
0207980097IDBD.B5   IDB DEVELOP  B5IL0079800970010000000000005010620020000000000
0207980121IDBD.B7   IDB DEVELOFM B7IL0079801218010000000000005010620020000000000
0207980139IDBD.B8   IDB DEVEL0P  B8IL0079801390010000000000005010620020000000000
0200736579IDBH      IDB HOLDINGS   IL0007365799010000000000001010970010000000000
0207360043IDBH.B3   IDB HOLDINGS B3IL0073600434010000000000005010620020000000000
0201090133IDI       I.D.I          IL0010901333010000000000001010930010000000000
0201093343IDI.B1    I.D.I        B1IL0010933435010000000000005010620020000000000
0200431015IES       IES            IL0004310152010000000000001010970010000000000
0201083658IFN       IFN            IL0010836588010000000000001010940040000000000
0201092642IGLD.C1    INTER GOLD  C|IL0010926421010000000000003010940040000000000
0201092634IGLD.W2   INTER.  GOLD W2IL0010926348010000000000002010940040000000000
0200576017ILCO       ISRAEL CORP   IL0005760173010000000000001010970010000000000
0205760046ILCO.C1   ISRAEL CORP  C1IL0057600467010000000000003010970010000000000
0200612010ILDC      LAND DEV       IL0006120104010000000000001010970010000000000
0206120067ILDC.B10  LAND DEU   B10 IL0061200676010000000000005010620020000000000
0206120026ILDC.B7   LAND DEV     B7IL0061200262010000000000005010620020000000000
0206120059ILDC.B9   LAND DEU     B9IL0061200593010000000000005010620020000000000
0200508010ILDH      ILDI HOL       IL0005080101010000000000001010930010000000000
0205080064ILDH.B3   ILDI HOL     B3IL0050800643010000000000005010620020000000000
0205080049ILDH.C2   ILDI HOL     C2IL0050800494010000000000003010930010000000000
0205080031ILDH.W2   ILDI HOL     W2IL0050800312010000000000002010930010000000000
0201080464ILDM      ILD MALLS      IL0010804644010000000000001010950010000000000
0201090224ILDN      ILD  INSUR.    IL0010902240010000000000001010930010000000000
0201090257ILDN.C1   ILD INSUR.  C1 IL0010902570010000000000003010930010000000000
0201090240ILDN.W2   ILD INSUR.   W2IL0010902406010000000000002010930010000000000
0200562017ILOM      ISRALOM        IL0005620179010000000000001010950010000000000
0205620075ILOM.B4   ISRALOM      C4IL0056200756010000000000005010620020000000000
0205620042ILOM.C3   ISRALOM      C3IL0056200426010000000000003010950010000000000
0205620067ILOM.W4   ISRALOM      W4IL0056200673010000000000002010950010000000000
0201080753ILX       ILEX MEDICAL   IL0010807530010000000000001010940010000000000
0200282012IMCO      IMCO           IL0002820129010000000000001010960040000000000
0200424010INBR      INBAR          IL0004240102010000000000001010940050000000000
0200684019INCS      INTERCOSMA     IL0006840198010000000000001010960060000000000
0206033971IND.N20   INDUST DEV  N20IL0060339715010000000000005010700060000000000
0200606517INDD.G    INDUST DEV    GIL0006065176010000000000001010900010000000000
0200606418INDD.GG   INDUST DEV   GGIL0006064187010000000000001010900010000000000
0200606095INDD.GG1  INDUST DEV  GG1IL0006060953010000000000001010900010000000000
0200606111INDD.P    INDUST DEV    PIL0006061118010000000000001010900010000000000
0201087915INIS.B1   INTERN ISSUE B1IL0010879158010000000000005010730020000000000
0201091164INIS.B2   INTERN ISSUE B2IL0010911647010000000000005010620020000000000
0201093681INIS.B3   INTERN ISSUE B3IL0010936818010000000000005010620020000000000
0200363010INSP      INSPIRE        IL0003630105010000000000001010970010000000000
0203630100INSP.B2   INSPIRE      B2IL0036301005010000000000005010620020000000000
0203630092INSP.W2    INSPIRE    W2 IL0036300924010000000000002010970010000000000
0200174011INTR1     INTERGAMA     1IL0001740112010000000000001010940010000000000
0200174037INTR5     INTERGAMA     5IL0001740377010000000000001010940010000000000
0200743013IPRO      ISPRO          IL0007430130010000000000001010950010000000000
0201082007ISAL      ISAL           IL0010820079010000000000001010970010000000000
0201080845ISCO      ISRACOLOR      IL0010808454010000000000001010940010000000000
0201080605ISE       ISE            IL0010806052010000000000001010940020000000000
0200232017ISRA.L    ISRAMCO       LIL0002320179010000000000012010980010000000000
0201080985ISRO      ISROTEL        IL0010809858010000000000001010940030000000000
0200613034ISRS      ISRAS          IL0006130343010000000000001010950010000000000
0206130082ISRS.B5   ISRAS        B5IL0061300823010000000000005010620020000000000
0206130058ISRS.C4   ISRAS        C4IL0061300583010000000000003010950010000000000
0206130025ISRS.O2   ISRS         O2IL0061300252010000000000013010950010000000000
0206130108ISRS.WB5  ISRAS       WB5IL0061301086010000000000015010620020000000000
0206130116ISRS.WB6  ISRAS       WB6IL0061301169010000000000015010620020000000000
0201084250ISTA.P    ISSTA     P 0.1IL0010842503010000000000001110940030000000000
0201081074ISTA1     ISSTA         1IL0010810740010000000000001010940030000000000
0200423012ITL       ITL            IL0004230129010000000000001010960040000000000
0204230058ITL.C1    ITL          B1IL0042300587010000000000003010960040000000000
0204230033ITL.W2    ITL          W2IL0042300330010000000000002010960040000000000
0201082114IVTC      INVENTECH      IL0010821143010000000000001010970010000000000
0201090489IVTC.W1   INVENTECH    W1IL0010904899010000000000002010970010000000000
0200726018JBNK      JERUSALEM      IL0007260180010000000000001010900010000000000
0200583013JOEL      JOEL           IL0005830133010000000000001010970010000000000
0201093186JRIS.B1   JERUSALEM IS B1IL0010931868010000000000005010620020000000000
0200448019JULX-M     JULEX       -MIL0004480195010000000000001010970010000000000
0200522011KAFR      KAFRIT         IL0005220111010000000000001010960060000000000
0201093798KEST.B1   KESHET       B1IL0010937980010000000000005010730020000000000
0200197012KETR      KETER          IL0001970123010000000000001010960070000000000
0200825018KING      KING           IL0008250180010000000000001010960030000000000
0200797035KLIL      KLIL           IL0007970358010000000000001010960030000000000
0207970031KLIL.B1   KLIL         B1IL0079700311010000000000005010620020000000000
0207970023KLIL.W2   KLIL         W2IL0079700238010000000000002010960030000000000
0201094960KLIR.B1   KLIR CHEMIC  B1IL0010949605010000000000005010620020000000000
0201094978KLIR.WC1  KLIR CHEMIC WB1IL0010949787010000000000015010620020000000000
0200355016KLNT      KALANT CARMON  IL0003550162010000000000001010940040000000000
0200118018KLRM      KALROM         IL0001180186010000000000001010940010000000000
0201180025KLRM.C1   KALROM       C1IL0011800252010000000000003010940010000000000
0201180017KLRM.W1   KALROM       W1IL0011800179010000000000002010940010000000000
0201094119KMDA      KAMADA         IL0010941198010000000000001010960060000000000
0201094127KMDA.W1   KAMADA       W1IL0010941271010000000000002010960060000000000
0201094135KMDA.W2   KAMADA       W2IL0010941354010000000000002010960060000000000
0200339036KMNH       KAMAN HOLDINGSIL0003390361010000000000001010970010000000000
0203390044KMNH.B1      KAMAN HOL B1IL0033900445010000000000005010620020000000000
0203390051KMNH.W2     KAMAN HOLD W2IL0033900510010000000000002010970010000000000
0200132019KMOR      KAMOR          IL0001320196010000000000001010970010000000000
0201320100KMOR.B5   KAMOR        B5IL0013201004010000000000005010620020000000000
0201320076KMOR.C4   KAMOR        C4IL0013200766010000000000003010970010000000000
0201320068KMOR.W7   KAMOR        W7IL0013200683010000000000002010970010000000000
0201320092KMOR.W8   KAMOR        W8IL0013200923010000000000002010970010000000000
0200543017KNFM      KNAFAIM        IL0005430173010000000000001010940020000000000
0201210079KRIS      KARDAN ISRAEL  IL0012100793010000000000001010970010000000000
0201210087KRIS.C3   KARDAN USR   C3IL0012100876010000000000003010970010000000000
0201210095KRIS.W4   KARDAN ISR   W4IL0012100959010000000000002010970010000000000
0201085026KRTC      KARDAN TECHNO. IL0010850266010000000000001010970010000000000
0201093160KSGL.1    KSM COM. GOLD 1IL0010931603010000000000036030750010000000000
0201094002KSID.10    KSM SAL ID  10IL0010940026010000000000032020970040000000000
0201089671KSM.BN4     KSM INST BN 4IL0010896715010000000000032010970040000000000
0201091610KSM.CHN5  KSM     5 CHINAIL0010916109010000000000032020970040000000000
0201091289KSM.DAX4  KSM 4 DAX      IL0010912892010000000000032020970040000000000
0201089689KSM.DJ5   KSM INST DJIA 5IL0010896897010000000000032020970040000000000
0201089390KSM.E50     KSM INST E 50IL0010893902010000000000032020970040000000000
0201090885KSM.FT2   KSM 2 FTSE 100 IL0010908858010000000000032020970040000000000
0201092311KSM.MA    KSM 2 MALA     IL0010923113010000000000032010970040000000000
0201090893KSM.NDX3  KSM  3 NDX     IL0010908932010000000000032020970040000000000
0201089986KSM.NK6    KSM INST NKY 6IL0010899867010000000000032020970040000000000
0201093152KSM.SHR   KSM MADAD.     IL0010931520010000000000036010750010000000000
0201090612KSM.SP    KSM INST SP 500IL0010906126010000000000032020970040000000000
0201088913KSM.TT15    KSM  INST  15IL0010889132010000000000032010970040000000000
0201088905KSM.100     KSM INST  100IL0010889058010000000000032010970040000000000
0201092014KSM.6YT   KSM 6      YT30IL0010920143010000000000032010970040000000000
0201092022KSM.7ND   KSM 7   NDLN 15IL0010920226010000000000032010970040000000000
0201089549KSM.75        KSM 1 TA 75IL0010895493010000000000032010970040000000000
0201092030KSM.8PNN  KSM 8   PNNS 15IL0010920309010000000000032010970040000000000
0201094028KSMBL.8     KSM SAL BL  8IL0010940281010000000000036010750010000000000
0201093996KSMEU.9     KSM SAL EU  9IL0010939960010000000000032020970040000000000
0201091271KSMJM.B1     KSM JAMBO B1IL0010912710010000000000005010730020000000000
0201094796KSMLT.11  KSM SAL LTAM 11IL0010947963010000000000032020970040000000000
0201093970KSMRS.7     KSM SAL RS  7IL0010939705010000000000032020970040000000000
0201093418KSMS.SP4  KSM SHOR S&P  4IL0010934185010000000000033020970040000000000
0201093400KSMSNS.3  KSM SHORT NS  3IL0010934003010000000000033020970040000000000
0201093392KSMS1.2   KSM SHORT     2IL0010933922010000000000033010970040000000000
0201093384KSMS25.1  KSM SHORT 25  1IL0010933849010000000000033010970040000000000
0201093426KSMS75.5  KSM SHORT 75  5IL0010934268010000000000033010970040000000000
0201093962KSM25.6     KSM SAL 25  6IL0010939622010000000000032010970040000000000
0200642017LAPD      LAPIDOTH       IL0006420173010000000000001010940020000000000
0200106013LBR-M     LIEBER       -MIL0001060131010000000000001010950010000000000
0201085042LBRT              LIBERTYIL0010850423010000000000001010950010000000000
0200318014LDER      LEADER         IL0003180143010000000000001010970010000000000
0203180171LDER.B4   LEADER       B4IL0031801710010000000000005010620020000000000
0203180163LDER.W1   LEADER       W1IL0031801637010000000000002010970010000000000
0200310011LDRTC     LEADER TECH    IL0003100117010000000000001010970010000000000
0200719013LEVA      LEVI           IL0007190130010000000000001010950010000000000
0207190051LEVA.B3   LEVI         B3IL0071900513010000000000005010620020000000000
0207190036LEVA.W2   LEVI         W2IL0071900364010000000000002010950010000000000
0200573014LEVI      LEVINSTEIN     IL0005730143010000000000001010950010000000000
0205730064LEVI.B2   LEVINSTEIN   B2IL0057300647010000000000005010620020000000000
0205730056LEVI.W3   LEVINSTEIN   W3IL0057300563010000000000002010950010000000000
0200592014LFSR       LIFSHIR       IL0005920140010000000000001010950010000000000
0200352013LGNA      LAGNA HOLDINGS IL0003520132010000000000001010950010000000000
0200826016LHIS      LACHISH        IL0008260163010000000000001010960030000000000
0200463018LIGD-M    LIGAD        -MIL0004630187010000000000001010950010000000000
0200521013LIMS      LIMS           IL0005210138010000000000001010940040000000000
0200753012LODZ      LODZIA        1IL0007530129010000000000001010970010000000000
0201091248LPHL      LAPIDOTH HELETZIL0010912488010000000000012010980010000000000
0201091255LPHL.WL1  LAPIDOT HEL.WL1IL0010912553010000000000002040980010000000000
0201080266LTGR           LITO GROUPIL0010802663010000000000001010960040000000000
0201094218LTGR.B1     LITO GROUP B1IL0010942188010000000000005010620020000000000
0201094234LTGR.WB2  LITO GROUP WB.2IL0010942345010000000000015010620020000000000
0201094226LTGR.W1     LITO GROUP W1IL0010942261010000000000002010960040000000000
0201081439LUDN      LUDAN          IL0010814395010000000000001010940020000000000
0207410038LUF.B1    LEUMI FIN    B1IL0074100384010000000000005010620020000000000
0207411135LUF.B170  LEUMI FIN  B170IL0074111357010000000000005010620020000000000
0207411176LUF.B172  LEUMI FIN  B172IL0074111761010000000000005010620020000000000
0207411192LUF.B173  LEUMI FIN  B173IL0074111928010000000000005010620020000000000
0207410087LUF.B176  LEUMI FIN B 176IL0074100871010000000000005010620020000000000
0207410129LUF.B177   LEUMI FIN B177IL0074101291010000000000005010620020000000000
0207410137LUF.B178   LEUMI FIN B178IL0074101374010000000000005010700060000000000
0207410053LUF.B2    LEUMI FIN    B2IL0074100533010000000000005010730010000000000
0207410061LUF.B3    LEUMI FIN    B3IL0074100616010000000000005010620020000000000
0207410079LUF.B4    LEUMI FIN    B4IL0074100798010000000000005010700060000000000
0207410103LUF.B5       LEUMI FIN B5IL0074101036010000000000005010700060000000000
0207410111LUF.B6    LEUMI FIN    B6IL0074101119010000000000005010620020000000000
0206020010LUM.B152  LEUMI MORT B152IL0060200107010000000000005010620020000000000
0206020028LUM.B153  LEUMI MORT B153IL0060200289010000000000005010620020000000000
0200604611LUMI      LEUMI          IL0006046119010000000000001040900010000000000
0206040075LUMI.B1   LUMI         B1IL0060400756010000000000005010620020000000000
0200584011LUMR      LUMIR          IL0005840116010000000000001010950010000000000
0200366013LVR                LEVERSIL0003660136010000000000001010950010000000000
0200528018MABR      MAABAROT       IL0005280180010000000000001010960010000000000
0205280029MABR.C1   MAABAROT     C1IL0052800294010000000000003010960010000000000
0200317016MAFL      MAFIL          IL0003170169010000000000001010940020000000000
0202180024MAGAL.B4  MAGAL        B4IL0021800243010000000000005010730010000000000
0201080225MAGM      MAGMA          IL0010802259010000000000001010960060000000000
0201081819MAIN      M.A. INDUSTRIESIL0010818198010000000000001010960060000000000
0201086743MAIN.C1   M.A. INDUST  C1IL0010867435010000000000003010960060000000000
0201080928MALT      MELTA          IL0010809288010000000000001010960040000000000
0201086180MALT.W3   MELTA        W3IL0010861800010000000000002010960040000000000
0201080977MAPR      HAMAKOR PRINT  IL0010809775010000000000001010960070000000000
0200486027MARA      MARATHON       IL0004860271010000000000001010970010000000000
0200744011MARV      MAARIV         IL0007440113010000000000001010940020000000000
0207440076MARV.B3   MAARIV       C3IL0074400768010000000000005010620020000000000
0205100078MATV.B1   MATAV        B1IL0051000789010000000000005010620020000000000
0200134015MAXM1     MAXIMA        1IL0001340152010000000000001010960060000000000
0200134031MAXM5     MAXIMA        5IL0001340319010000000000001010960060000000000
0201094937MAYN      MAAYAN VENTURESIL0010949373010000000000001010970010000000000
0201092063MBTF15.1  MABAT FINN 15 1IL0010920630010000000000032010970040000000000
0201092071MBTF30.2  MBAT FNN 30.  2IL0010920713010000000000032010970040000000000
0201093376MBTG.NS3  MABATGIDR NSD3 IL0010933765010000000000033020970040000000000
0201093368MBTG1.2   MABAT GIDUR   2IL0010933682010000000000033010970040000000000
0201093350MBTG25.1  MABAT GDOR 1 25IL0010933500010000000000033010970040000000000
0201091495MBT100.2  MABAT 2     100IL0010914955010000000000032010970040000000000
0201089515MBT25.1   MABAT        25IL0010895154010000000000032010970040000000000
0200307017MCPL      MACPELL        IL0003070179010000000000001010960020000000000
0203070067MCPL.C3   MACPEL       C3IL0030700673010000000000003010960020000000000
0200433011MCTC           MICROMEDICIL0004330119010000000000001010970010000000000
0200345017MDIN.L    MODIIN        LIL0003450173010000000000012010980010000000000
0203450095MDIN.WL4  MODDIIN     WL4IL0034500954010000000000002040980010000000000
0200253013MEDI      MEDTECHNICA    IL0002530132010000000000001010940010000000000
0202530020MEDI.C2   MEDTECHNICA  C2IL0025300208010000000000003010940010000000000
0202530087MEDI.O1   MEDTECHNICA  O1IL0025300877010000000000013010940010000000000
0202530095MEDI.O2   MEDTECHNICA  O2IL0025300950010000000000013010940010000000000
0202530061MEDI.W4   MEDTECHNICA  W4IL0025300612010000000000002010940010000000000
0202530079MEDI.W5   MEDTECHNICA  W5IL0025300794010000000000002010940010000000000
0200686014MEDN      MEHADRIN       IL0006860147010000000000001010950010000000000
0200409011MEHO-M     MEDITERANEAN-MIL0004090119010000000000001010940030000000000
0200341016METR      ALONEI MEITAR  IL0003410169010000000000001010970010000000000
0200404012MEYD      MAYANOT EDEN   IL0004040122010000000000001010960010000000000
0200296012MGAM      MAGAM          IL0002960123010000000000001010970010000000000
0201081165MGDL      MIGDAL INSURANCIL0010811656010000000000001010930010000000000
0200482018MILO      MILOUMOR       IL0004820184010000000000001010970010000000000
0204820031MILO.C2   MILOUMOR     C2IL0048200310010000000000003010970010000000000
0200426015MINI      MINI LINE      IL0004260159010000000000001010940010000000000
0200127019MISH      MIVTACH SHAMIR IL0001270193010000000000001010970010000000000
0201270057MISH.C2   MIVTACH SHAM C2IL0012700576010000000000003010970010000000000
0201081546MKH.B1    M.K.H.       B1IL0010815467010000000000005010620020000000000
0201082189MLAM      MALAM          IL0010821895010000000000001010940040000000000
0201082197MLAM.B1   MALAM        B1IL0010821978010000000000005010620020000000000
0200136010MLLC      MLL            IL0001360101010000000000001010940040000000000
0201094622MLRG      MALRAG     0.05IL0010946221010000000000001010950010000000000
0201094655MLRG.C1   MALRAG       C1IL0010946551010000000000003010950010000000000
0201094648MLRG.WC2  MALRAG      WC2IL0010946486010000000000002020950010000000000
0201094630MLRG.W1   MALRAG       W1IL0010946304010000000000002010950010000000000
0200323014MLSR      MELISRON       IL0003230146010000000000001010950010000000000
0203230067MLSR.B3   MELISRON     B3IL0032300670010000000000005010620020000000000
0203230026MLSR.C2   MELISRON     C2IL0032300266010000000000003010950010000000000
0201094986MLTR        MILOMOR TRAE IL0010949860010000000000001010940010000000000
0201095025MLTR.B2    MILOMOR TR. B2IL0010950256010000000000005010620020000000000
0201094994MLTR.C1    MILOMOR TR. C1IL0010949944010000000000003010940010000000000
0201080035MLTX      MULTIMATRIX    IL0010800352010000000000001010970010000000000
0200523019MLUM      MILLENNIUM     IL0005230193010000000000001010940030000000000
0200238014MMAN      MAMAN          IL0002380140010000000000001010940020000000000
0200732016MMCO      COHEN M M      IL0007320166010000000000001010950010000000000
0207480015MNPK.B1   MANPIKIM     B1IL0074800157010000000000005010620020000000000
0207480023MNPK.B2   MANPIKIM     B2IL0074800231010000000000005010620020000000000
0200155036MNRV      MINRAV         IL0001550362010000000000001010950010000000000
0201093020MNSU.B1   MENDELSON SU B1IL0010930209010000000000005010620020000000000
0200375014MOFT      MOFET          IL0003750143010000000000001010970010000000000
0200566018MORA      MENORAH        IL0005660183010000000000001010930010000000000
0201094101MRCN.B1   MERCANTILE   B1IL0010941016010000000000005010620020000000000
0200384016MRHV      MERHAV         IL0003840167010000000000001010960050000000000
0200669010MTCO      MTI            IL0006690106010000000000001010940040000000000
0200815019MTM       MTM            IL0008150190010000000000001010950010000000000
0201091065MTRN      MAYTRONICS  0.1IL0010910656010000000000001010960040000000000
0201091073MTRN.W1   MAYTRONICS   W1IL0010910730010000000000002010960040000000000
0200445015MTRX      MATRIX         IL0004450156010000000000001010940040000000000
0204450029MTRX.W2   MATRIX       W2IL0044500291010000000000002010940040000000000
0200695437MZTF      MIZRAHI TEFAHOTIL0006954379010000000000001010900010000000000
0201083575NAMN      NAAMAN         IL0010835754010000000000001010940010000000000
0201093277NAMN.C1   NAAMAN       C1IL0010932775010000000000003010940010000000000
0201093269NAMN.W2   NAAMAN       W2IL0010932692010000000000002010940010000000000
0201093624NANT.B1   NANETTE      B1IL0010936248010000000000005010700060000000000
0200628099NCST-M    NECHUSTAN INV-MIL0006280999010000000000001010970010000000000
0206280010NCT.W2-M  NECHUSTAN W2-M IL0062800102010000000000002010970010000000000
0200564013NDLS      NADLANS        IL0005640136010000000000001010950010000000000
0200274019NFEX.L    NAPHTHA EXP   LIL0002740194010000000000012010980010000000000
0200643015NFTA      NAPHTHA     0.1IL0006430156010000000000001010980010000000000
0200211011NGEV      NEGEV          IL0002110117010000000000001010960050000000000
0209230137NGN2301          NGN 2301IL0092301378010000000000004130520010000000000
0209230236NGN2302          NGN 2302IL0092302368010000000000004130520010000000000
0209230335NGN2303          NGN 2303IL0092303358010000000000004130520010000000000
0209230434NGN2304          NGN 2304IL0092304349010000000000004130520010000000000
0209230533NGN2305          NGN 2305IL0092305338010000000000004130520010000000000
0209231135NGN2311          NGN 2311IL0092311351010000000000004130520010000000000
0209231531NGN2315          NGN 2315IL0092315311010000000000004130520010000000000
0200401018NIA       NIA            IL0004010182010000000000001010960030000000000
0200660019NISA      NISSAN         IL0006600196010000000000001010960080000000000
0200141010NKPL      NEW KOPEL      IL0001410104010000000000001010940020000000000
0201410067NKPL.C2   NEW KOPEL    C2IL0014100676010000000000003010940020000000000
0201410075NKPL.C3   NEW KOPEL    C3IL0014100759010000000000003010940020000000000
0200429019NMC       NMC            IL0004290198010000000000001010960080000000000
0200488015NSKO      NISKO          IL0004880154010000000000001010940010000000000
0201085380NSPR       NISKO PROJECTSIL0010853807010000000000001010940010000000000
0201095140NSVX                 IL0010951403010000000000001010960060000000000
0201095157NSVX.C1   NASVAX       C1IL0010951577010000000000003010960060000000000
0201081215NTBA      NITSBA         IL0010812159010000000000001010950010000000000
0201081223NTBA.C1   NITSBA       C1IL0010812233010000000000003010950010000000000
0200421016NTGR      NETANEL GROUP  IL0004210162010000000000001010950010000000000
0202489995NTM.B1    NTM          B1IL0024899952010000000000005010620020000000000
0200168013NTO       NETO           IL0001680136010000000000001010960010000000000
0201092907NTSN      NETVISION      IL0010929078010000000000001010940040000000000
0201092923NTSN.C1   NETVISION    C1IL0010929235010000000000003010940040000000000
0201092915NTSN.W1   NETVISION    W1IL0010929151010000000000002010940040000000000
0200360016NURD-M      NORDAN TECH-MIL0003600165010000000000001010960030000000000
0200293019NVIO      NEVIOT         IL0002930191010000000000001010960010000000000
0203300019NYP.B1    NYP          B1IL0033000196010000000000005010620020000000000
0200485011OCEA      OCEANA         IL0004850116010000000000001010950010000000000
0207020209OCF.WC10  OCIF       WC10IL0070202093010000000000002020950010000000000
0200702019OCIF      OCIF           IL0007020196010000000000001010950010000000000
0207020142OCIF.B5   OCIF         B5IL0070201426010000000000005010620020000000000
0207020118OCIF.C4   OCIF         C4IL0070201186010000000000003010950010000000000
0207020167OCIF.C6   OCIF         C6IL0070201673010000000000003010950010000000000
0207020183OCIF.C7   OCIF         C7IL0070201830010000000000003010950010000000000
0207020126OCIF.W5   OCIF         W5IL0070201269010000000000002010950010000000000
0207020159OCIF.W7   OCIF         W7IL0070201590010000000000002010950010000000000
0207020191OCIF.W9   OCIF         W9IL0070201913010000000000002010950010000000000
0200148015OFIS      OFFIS          IL0001480156010000000000001010960020000000000
0200819011OGEN      OGEN REAL ESTATIL0008190113010000000000001010950010000000000
0208190027OGEN.C1   OGEN REAL ES.C1IL0081900271010000000000003010950010000000000
0208190019OGEN.W1   OGEN REAL ES.W1IL0081900198010000000000002010950010000000000
0200601013OHH       OHH            IL0006010131010000000000001010900010000000000
0200179010OLMP      OLIMPIA        IL0001790109010000000000001010950010000000000
0201790039OLMP.C1        OLIMPIA C1IL0017900395010000000000003010950010000000000
0201790047OLMP.W2   OLIMPIA      W2IL0017900478010000000000002010950010000000000
0201094499OMER.B1     OMER DEBEN B1IL0010944994010000000000005010700060000000000
0201094507OMER.B2     OMER DEBEN B2IL0010945074010000000000005010730020000000000
0200349019OMGA      OMEGA          IL0003490195010000000000001010970010000000000
0203490034OMGA.C1          OMEGA C1IL0034900345010000000000003010970010000000000
0201080969OMNF      OMNI           IL0010809692010000000000001010960010000000000
0200446013OMNI      OMNITECH       IL0004460130010000000000001010940040000000000
0200161018ONE          ONE SOFTWAREIL0001610182010000000000001010940040000000000
0201610138ONE.B1             ONE B1IL0016101383010000000000005010620020000000000
0201610146ONE.W2    ONE          W2IL0016101466010000000000002010940040000000000
0201083609ONSM           ONE SYSTEMIL0010836091010000000000001010940040000000000
0201083617ONSM.C1     ONE SYSTEM.C1IL0010836174010000000000003010940040000000000
0200255018OPIR      OPHIR          IL0002550189010000000000001010960040000000000
0202550119OPIR.B1          OPHIR B1IL0025501193010000000000005010620020000000000
0202550127OPIR.W2          OPHIR W2IL0025501276010000000000002010960040000000000
0200171017OPTI      OPTIMA         IL0001710172010000000000001010950010000000000
0200265017ORBI      ORBIT          IL0002650179010000000000001010960040000000000
0200212019ORDA      ORDA           IL0002120199010000000000001010960070000000000
0202980068ORLI.C2   ORLITE       C2IL0029800682010000000000003010960080000000000
0200765016ORLN      ORLINE         IL0007650166010000000000001010970010000000000
0200260018ORMT      ORMAT          IL0002600182010000000000001010960040000000000
0202600195ORMT.B9   ORMAT        B9IL0026001953010000000000005010700060000000000
0202600187ORMT.C8   ORMAT        C8IL0026001870010000000000003010960040000000000
0202600138ORMT.W8   ORMAT        W8IL0026001383010000000000002010960040000000000
0202600179ORMT.W9   ORMAT        W9IL0026001797010000000000002010960040000000000
0202600146ORMT.7    ORMAT        C7IL0026001466010000000000003010960040000000000
0200533018ORTA              ORTAL  IL0005330183010000000000001010960030000000000
0200304014OSEM      OSEM           IL0003040149010000000000001010960010000000000
0200700070PAMA      PAMA           IL0007000701010000000000001010970010000000000
0200412015PAYT      PAYTON         IL0004120155010000000000001010960040000000000
0201091685PCBT      P.C.B TEC      IL0010916851010000000000001010960040000000000
0201091701PCBT.C1   P.C.B. TEC   C1IL0010917016010000000000003010960040000000000
0200502013PERG      PEREG          IL0005020131010000000000001010960040000000000
0201940048PHAN.B1   POALIM HAN   B1IL0019400485010000000000005010620020000000000
0201940311PHAN.B16  POALIM HAN  B16IL0019403117010000000000005010620020000000000
0201940337PHAN.B17  POALIM HAN  B17IL0019403372010000000000005010620020000000000
0201940063PHAN.B2   POALIM HAN   B2IL0019400634010000000000005010620020000000000
0201940287PHAN.B22  POALIM HAN  B22IL0019402879010000000000005010620020000000000
0201940329PHAN.B23  POALIM HAN  B23IL0019403299010000000000005010620020000000000
0201940345PHAN.B24  POALIM HAN  B24IL0019403455010000000000005010620020000000000
0201940360PHAN.B25   POALIM HAN B25IL0019403604010000000000005010620020000000000
0201940089PHAN.B3   POALIM  HAN  B3IL0019400899010000000000005010730010000000000
0201940105PHAN.B4   POALIM HAN   B4IL0019401053010000000000005010620020000000000
0201940246PHAN.B42  POALIM  HAN B42IL0019402465010000000000005010620020000000000
0201940121PHAN.B5   POALIM HAN   B5IL0019401210010000000000005010730010000000000
0201940147PHAN.B6   POALIM HAN   B6IL0019401475010000000000005010730010000000000
0201940188PHAN.B7   POALIM HAN   B7IL0019401889010000000000005010730010000000000
0201940303PHAN.B8   POALIM HAN   B8IL0019403034010000000000005010620020000000000
0201940386PHAN.B9     POALIM HAN B9IL0019403869010000000000005010620020000000000
0201940204PHAS.B1   POALIM HA STAR1IL0019402044010000000000005010700060000000000
0200767012PHOE1     PHOENIX       1IL0007670123010000000000001010930010000000000
0200767038PHOE5     PHOENIX       5IL0007670388010000000000001010930010000000000
0200648014PINR      PINROS         IL0006480144010000000000001010940010000000000
0201090091PISP.500  POALIM INDX500 IL0010900913010000000000032020970040000000000
0200417014PITK      PITKIT         IL0004170143010000000000001010960070000000000
0201084482PIU       POALIM IBI     IL0010844822010000000000001010940050000000000
0200800011PKER      PACKER         IL0008000114010000000000001010960030000000000
0204900023PKPZ.C2   PACKER-YADPA C2IL0049000230010000000000003010960030000000000
0200751032PLGT       POLGAT        IL0007510329010000000000001010960020000000000
0207510068PLGT.B4         POLGAT B4IL0075100680010000000000005010620020000000000
0207510084PLGT.WB6       POLGAT WB6IL0075100847010000000000015010620020000000000
0207510076PLGT.W5         POLGAT W5IL0075100763010000000000002010960020000000000
0201093046PLIT      POLAR INTRER.  IL0010930464010000000000001010950010000000000
0201093079PLIT.B2   POLAR INTERN B2IL0010930795010000000000005010620020000000000
0201093061PLIT.C1   POLAR INTERN C1IL0010930613010000000000003010950010000000000
0201093087PLIT.WC1  POLAR INTER WC1IL0010930878010000000000002020950010000000000
0200698019PLR       POLAR INVESTMENIL0006980192010000000000001010970010000000000
0206980098PLR.B3    POLAR  INV   B3IL0069800980010000000000005010620020000000000
0206980163PLR.C4    POLAR INV    C4IL0069801632010000000000003010970010000000000
0201083633PLRC           POLAR COMMIL0010836331010000000000001010970010000000000
0201093897PLRC.B1     POLAR COMM B1IL0010938970010000000000005010620020000000000
0201093905PLRC.C2     POLAR COMM C2IL0010939051010000000000003010970010000000000
0201093921PLRC.WB3   POLAR COMM WB3IL0010939218010000000000015010620020000000000
0201093913PLRC.W2     POLAR COMM W2IL0010939135010000000000002010970010000000000
0200644013PLRM      PALRAM         IL0006440130010000000000001010960060000000000
0206440010PLRM.W1   PALRAM       W1IL0064400109010000000000002010960060000000000
0206440028PLRM.W2   PALRAM       W2IL0064400281010000000000002010960060000000000
0201091719PLSK      POLYSACK       IL0010917198010000000000001010960060000000000
0201092295PLSK.B1      POLYSACK  B1IL0010922958010000000000005010620020000000000
0201091727PLSK.W1   POLYSACK     W1IL0010917271010000000000002010960060000000000
0201092287PLSK.W2   POLYSACK     W2IL0010922875010000000000002010960060000000000
0201081603PLSN       PLASSON INDUS IL0010816036010000000000001010960060000000000
0200727016PLST      PLASTO SAC     IL0007270163010000000000001010960060000000000
0207270036PLST.C1   PLASTO SAC   C1IL0072700367010000000000003010960060000000000
0201090455PLSTR     PLASTRO    0.01IL0010904550010000000000001010960060000000000
0201091859PLSTR.B2   PLASTRO     B2IL0010918592010000000000005010620020000000000
0201090471PLSTR.C1   PLASTRO     C1IL0010904717010000000000003010960060000000000
0201090463PLSTR.W1  PLASTRO      W1IL0010904634010000000000002010960060000000000
0201091842PLSTR.W2    PLASTRO    W2IL0010918428010000000000002010960060000000000
0201090984PMBT.NS1   PLMBT NASDAQ 1IL0010909849010000000000032020970040000000000
0200505016PNEL      PNEIEL         IL0005050161010000000000001010970010000000000
0200434019PNTC          PEN TECHNOLIL0004340191010000000000001010970010000000000
0201090943POLRM     POLYRAM    0.01IL0010909435010000000000001010960060000000000
0201090950POLRM.W1  POLYRAM      W1IL0010909500010000000000002010960060000000000
0200745018POLY      POLYGON        IL0007450187010000000000001010950010000000000
0201092840PPIL      PLASTOFIL      IL0010928401010000000000001010960060000000000
0201092857PPIL.C1   PLASTOFIL    C1IL0010928575010000000000003010960060000000000
0200549014PROB      PROFIT         IL0005490144010000000000001010950010000000000
0205490115PROB.B3   PROFIT       B3IL0054901157010000000000005010620020000000000
0205490107PROB.C2   PROFIT       C2IL0054901074010000000000003010950010000000000
0205490032PROB.W1   PROFIT       W1IL0054900324010000000000002010950010000000000
0205490099PROB.W3   PROFIT       W3IL0054900993010000000000002010950010000000000
0200328013PRTC            PRIORTECHIL0003280133010000000000001010960040000000000
0201089481PSAO.B1   PSAGOT OPEK  B1IL0010894819010000000000005010700060000000000
0201089499PSAO.B2   PSAGOT OPEK  B2IL0010894991010000000000005010700060000000000
0201094440PSCUR.B1  PSAGOT CURR  B1IL0010944408010000000000005010700060000000000
0200208017PSFN      PSAGOT FINAN   IL0002080179010000000000001010940050000000000
0200699017PTBL      PROPERT & BUIL IL0006990175010000000000001010950010000000000
0200756015PTCH      PETROCHEMICAL  IL0007560159010000000000001010960060000000000
0201092600PTNR.B1   PARTNER      B1IL0010926009010000000000005010620020000000000
0201084607PYTC      PHYTECH    0.01IL0010846074010000000000001010960040000000000
0200200014PZCH      PAZ CHAEN      IL0002000144010000000000001010970010000000000
0201093707PZHN.B2    PAZ PIKADON B2IL0010937071010000000000005010700060000000000
0201094788PZPZO.B1  PAZ PEZO     B1IL0010947880010000000000005010700060000000000
0201093699PZTR.B1    PAZ PIKADON B1IL0010936990010000000000005010700060000000000
0201083955QLTU      QUALITAU       IL0010839558010000000000001010960040000000000
0200386011QNCO              QUEENCOIL0003860116010000000000001010970010000000000
0200272013RABN      RABINTEX       IL0002720139010000000000001010960020000000000
0202720043RABN.B2   RABINTEX     B2IL0027200430010000000000005010620020000000000
0202720027RABN.C1   RABINTEX     C1IL0027200273010000000000003010960020000000000
0202720035RABN.W2   RABINTEX     W2IL0027200356010000000000002010960020000000000
0200394015RATI.L    RATIO         LIL0003940157010000000000012010980010000000000
0203940145RATI.WL6  RATIO       WL6IL0039401455010000000000002040980010000000000
0200526012RAVD      RAVAD          IL0005260125010000000000001010950010000000000
0200516013RDMC      RODEMCO        IL0005160135010000000000001010940010000000000
0205160031RDMC.C1   RODEMCO      C1IL0051600315010000000000003010940010000000000
0205160023RDMC.W2   RODEMCO      W2IL0051600232010000000000002010940010000000000
0200551010REGE      REGENCY        IL0005510107010000000000001010940030000000000
0201081009REKA      REKAH          IL0010810096010000000000001010960060000000000
0201092410REKA.B1   REKAH        B1IL0010924103010000000000005010620020000000000
0201092402REKA.W1   REKAH        W1IL0010924020010000000000002010960060000000000
0201085364RHTCH     R.H TECHNO     IL0010853641010000000000001010960040000000000
0201090539RHTCH.C1  R.H TECHNO   C1IL0010905391010000000000003010960040000000000
0201090521RHTCH.W2  R.H TECHNO   W2IL0010905219010000000000002010960040000000000
0201080456RIMO      RIMONI         IL0010804560010000000000001010960060000000000
0200393017RLCO      RALCO          IL0003930174010000000000001010940010000000000
0203930047RLCO.C1   RALCO        C1IL0039300475010000000000003010940010000000000
0200377010RLN       RILON          IL0003770109010000000000001010950010000000000
0203770047RLN.W2    RILON        W2IL0037700478010000000000002010950010000000000
0201083377RMDR      RAMDOR         IL0010833775010000000000001010940040000000000
0201087576RMON.B1   RAMON        B1IL0010875768010000000000005010700060000000000
0200365015RNTK      RANITECH      1IL0003650152010000000000001010950010000000000
0203650017RNTK.B1   RANITECH     B1IL0036500176010000000000005010620020000000000
0203650025RNTK.W2   RANITECH     W2IL0036500259010000000000002010950010000000000
0200266015ROBO      ROBOGROUP      IL0002660152010000000000001010960040000000000
0200192013ROSB      ROSEBUD        IL0001920136010000000000001010950010000000000
0201920073ROSB.B1        ROSEBUD.B1IL0019200737010000000000005010620020000000000
0201920099ROSB.W3        ROSEBUD W3IL0019200992010000000000002010950010000000000
0200438010ROSE      ROSENTHAL      IL0004380106010000000000001010940020000000000
0200291013ROTM-M            ROTEM-MIL0002910136010000000000001010950010000000000
0200539015ROTS      ROTSHTEIN      IL0005390153010000000000001010950010000000000
0200769026RPAC      RAPAC          IL0007690261010000000000001010940010000000000
0200408013RPD-M     RAPID        -MIL0004080136010000000000001010940020000000000
0201086230RPTC      RAPAC TECHNOLOGIL0010862303010000000000001010960040000000000
0200202010RSEF      RESHEF         IL0002020100010000000000001010940010000000000
0200299016RSEL      RSL            IL0002990161010000000000001010960040000000000
0201084425RSTV      ROSHTOV    0.01IL0010844251010000000000001010940040000000000
0201087006RSTV.W1   ROSHTOV      W1IL0010870066010000000000002010940040000000000
0200777037SAE       SUPERSOL       IL0007770378010000000000001010940010000000000
0207770142SAE.B2    SUPERSOL     B2IL0077701428010000000000005010620020000000000
0200720011SAIN-M     SAHAR INVEST-MIL0007200111010000000000001010970010000000000
0201090547SALG      SHALAG     0.01IL0010905474010000000000001010960070000000000
0201092998SALG.C1   SHALAG       C1IL0010929987010000000000003010960070000000000
0201092980SALG.W1   SHALAG       W1IL0010929805010000000000002010960070000000000
0200308015SALT      SALT           IL0003080152010000000000001010970010000000000
0200813014SANO1     SANO          1IL0008130143010000000000001010960060000000000
0200813030SANO5     SANO          5IL0008130309010000000000001010960060000000000
0200455014SBAR      BAR            IL0004550146010000000000001010940010000000000
0201092345SCC       SPACE COM      IL0010923451010000000000001010940020000000000
0201085869SCC.B1    SPACE COM    B1IL0010858699010000000000005010700060000000000
0201092360SCC.C2    SPACE COM    C2IL0010923600010000000000003010940020000000000
0201095348SCC.C3       SPACE COM C3IL0010953482010000000000003010940020000000000
0201092352SCC.W2    SPACE COM    W2IL0010923527010000000000002010940020000000000
0201095355SCC.W3       SPACE COM W3IL0010953557010000000000002010940020000000000
0200288019SCOP      SCOPE          IL0002880198010000000000001010940010000000000
0200333013SEFN      SEFEN          IL0003330136010000000000001010960070000000000
0200422014SFK       SHR FUD KEL    IL0004220146010000000000001010970010000000000
0204220216SFK.B4     SHR FUD KEL B4IL0042202163010000000000005010620020000000000
0204220208SFK.W4     SHR FUD KEL W4IL0042202080010000000000002010970010000000000
0201084763SFKT      SHR FUD KEL TECIL0010847635010000000000001010970010000000000
0201085836SFKT.C1   SHR FUD KELT C1IL0010858368010000000000003010970010000000000
0201080837SHAN      SHANIV         IL0010808371010000000000001010960070000000000
0200546010SHFD      SHAMIR FOOD    IL0005460105010000000000001010960010000000000
0200496018SHLG      SHELEG         IL0004960188010000000000001010960020000000000
0204410031SHMI.C2   SHMIRA       C2IL0044100316010000000000003010940020000000000
0200451013SHML      SHAHAR HAMIL   IL0004510132010000000000001010970010000000000
0204510038SHML.C2   SHAHAR HAMIL C2IL0045100380010000000000003010970010000000000
0200634030SHMN      SHEMEN         IL0006340306010000000000001010960010000000000
0201092899SHRT.B1   SHAHARIT     B1IL0010928997010000000000005010730020000000000
0209266636SH2666       CHACHAR 2666IL0092666366010000000000004110520020000000000
0209266735SH2667       CHACHAR 2667IL0092667356010000000000004110520020000000000
0209267030SH2670       CHACHAR 2670IL0092670301010000000000004110520020000000000
0209267139SH2671       SHACHAR 2671IL0092671390010000000000004110520020000000000
0200724013SINS      SINAI          IL0007240133010000000000001010930010000000000
0207240054SINS.B3   SINAI        B3IL0072400547010000000000005010620020000000000
0207240039SINS.C2       SINAI    C2IL0072400398010000000000003010930010000000000
0207240062SINS.W3          SINAI W3IL0072400620010000000000002010930010000000000
0201083930SLA          SELA GROUP  IL0010839301010000000000001010940040000000000
0200147033SLAD      SHLADOT        IL0001470330010000000000001010960030000000000
0201089721SLBR      SOLBAR         IL0010897218010000000000001010960010000000000
0201090059SLBR.B2   SOLBAR       C2IL0010900590010000000000005010620020000000000
0201089747SLBR.C1   SOLBAR       C1IL0010897473010000000000003010960010000000000
0201089739SLBR.W1   SOLBAR       W1IL0010897390010000000000002010960010000000000
0201090042SLBR.W2   SOLBAR       W2IL0010900426010000000000002010960010000000000
0201095058SLTIS.B1  SHILTON ISSU B1IL0010950587010000000000005010620020000000000
0201095066SLTIS.B2  SHILTON ISSU B2IL0010950660010000000000005010620020000000000
0200711010SLTN      SHILTON        IL0007110104010000000000001010900010000000000
0201080290SMCM      SEMICOM        IL0010802903010000000000001010940010000000000
0201091594SMCM.C1   SEMICOM      C1IL0010915945010000000000003010940010000000000
0201081686SMT       SUMMIT         IL0010816861010000000000001010950010000000000
0201092956SMT.B4    SUMMIT       B4IL0010929565010000000000005010620020000000000
0201089952SMT.C2    SUMMIT       C2IL0010899529010000000000003010950010000000000
0201089960SMT.C3    SUMMIT       C3IL0010899602010000000000003010950010000000000
0201089945SMT.W3    SUMMIT       W3IL0010899453010000000000002010950010000000000
0201092964SMT.W4    SUMMIT       W4IL0010929649010000000000002010950010000000000
0201084953SNEL                SYNELIL0010849532010000000000001010960040000000000
0200102012SOLH      SOLOMON HOLDINGIL0001020127010000000000001010950010000000000
0200474015SOLO      SOLOMON CONSULTIL0004740150010000000000001010940050000000000
0200544015SPAN-M        SPANCRETE-MIL0005440156010000000000001010960050000000000
0200778019SPCB       SUPERIORCABELSIL0007780195010000000000001010960030000000000
0200568014SPCT      SPECTRONIX     IL0005680140010000000000001010960040000000000
0205680095SPCT.B1     SPECTRONIX B1IL0056800951010000000000005010620020000000000
0205680129SPCT.O2   SPECTRONIX   O2IL0056801298010000000000013010960040000000000
0205680103SPCT.W1   SPECTRONIX   W1IL0056801033010000000000002010960040000000000
0201089168SPNS.C1   SAPIENS      C1ANN7716AAC63010000000000003010940040000000000
0201089150SPNS.W1   SAPIENS      W1ANN7716A1778010000000000002010940040000000000
0201090117SPNTC     SPUNTECH   0.02IL0010901176010000000000001010960070000000000
0201090026SPNTC.C1  SPUNTECH     C1IL0010900269010000000000003010960070000000000
0201090018SPNTC.W1  SPUNTECH     W1IL0010900186010000000000002010960070000000000
0200295014SPRT      SPRINT         IL0002950140010000000000001010970010000000000
0200425017SRFT      SARFATI        IL0004250176010000000000001010950010000000000
0204250080SRFT.C3   SARFATI      C3IL0042500806010000000000003010950010000000000
0204250114SRFT.C4   SARFATI      C4IL0042501143010000000000003010950010000000000
0204250122SRFT.W3   SARFATI      W3IL0042501226010000000000002010950010000000000
0201080597STCM      SATCOM SYSTEM  IL0010805971010000000000001010940020000000000
0201091537STCM.C1   SATCOM SYST  C1IL0010915374010000000000003010940020000000000
0201091545STCM.W1   SATCOM SYST  W1IL0010915457010000000000002010940020000000000
0200746016STEL      STRAUSS-ELITE  IL0007460160010000000000001010960010000000000
0207460108STEL.B1   STRA-ELITE   B1IL0074601084010000000000005010620020000000000
0207460082STEL.W1   STRA-ELITE   W1IL0074600821010000000000002010960010000000000
0200550012STG       STG            IL0005500124010000000000001010940010000000000
0205500061STG.C2    STG          C2IL0055000611010000000000003010940010000000000
0205500038STG.W2    STG          W2IL0055000389010000000000002010940010000000000
0200347013STNG      SHTANG         IL0003470130010000000000001010950010000000000
0200220012STNT         STAR NIGHT  IL0002200124010000000000001010960040000000000
0200595017SUNF      SUNFROST       IL0005950170010000000000001010960010000000000
0205950043SUNF.C1   SUNFROST     C1IL0059500434010000000000003010960010000000000
0205950035SUNF.W1   SUNFROST     W1IL0059500350010000000000002010960010000000000
0200555011SUNY      SUNY           IL0005550111010000000000001010940010000000000
0200419010SYNO      SYNOPSIS       IL0004190109010000000000001010940020000000000
0200443010TADB      TADBIK         IL0004430109010000000000001010960070000000000
0201090802TADO.B1   TACHLIT DOL  B1IL0010908023010000000000005010700060000000000
0200477018TALD      TALDOR         IL0004770181010000000000001010940040000000000
0204770046TALD.C1   TALDOR       C1IL0047700468010000000000003010940040000000000
0201084656TALI      TALI 25        IL0010846561010000000000032010970040000000000
0200637017TAO          TAO         IL0006370170010000000000001010970010000000000
0206370050TAO.B1    TAO          B1IL0063700509010000000000005010620020000000000
0206370068TAO.C2      TAO        C2IL0063700681010000000000003010970010000000000
0206370076TAO.W6      TAO       W6 IL0063700764010000000000002010970010000000000
0200802033TAT5      TAT           5IL0008020336010000000000001010960040000000000
0200796011TAYA      TAYA INV       IL0007960110010000000000001010970010000000000
0201091818TC.TL100  TACHLIT   TL100IL0010918188010000000000032010970040000000000
0201091826TC.TL25   TACHLIT    TL25IL0010918261010000000000032010970040000000000
0201093855TCLER.B2   TACHLIT EUR B2IL0010938558010000000000005010700060000000000
0201093848TCLST.B1  TACHLIT STR B1 IL0010938483010000000000005010700060000000000
0201086925TDCM      TADIRAN COM.   IL0010869258010000000000001010960040000000000
0201090141TDGN      TADIR GAN      IL0010901416010000000000001010960030000000000
0201090158TDGN.W1   TADIR GAN    W1IL0010901580010000000000002010960030000000000
0200156018TEAM      TEAM           IL0001560189010000000000001010940040000000000
0201560010TEAM.W3   TEAM         W3IL0015600104010000000000002010940040000000000
0200142018TEDE      TEDEA          IL0001420186010000000000001010970010000000000
0200673012TEFN      TEFEN          IL0006730126010000000000001010940020000000000
0201095496TFR.W1    TEFRON       W1IL0010954969010000000000002010960020000000000
0202319978TFUN.B24  TEFAHOT UND B24IL0023199784010000000000005010620020000000000
0202310019TFUN.B25  TEFAHOT UND B25IL0023100196010000000000005010620020000000000
0202310027TFUN.B26  TEFAHOT UND B26IL0023100279010000000000005010620020000000000
0202310035TFUN.B27  TEFAHOT UND B27IL0023100352010000000000005010620020000000000
0201084367TFVC      TAMIR CAPITAL  IL0010843675010000000000001010970010000000000
0202070019THEN.B1   TECHEN       B1IL0020700196010000000000005010620020000000000
0202070035THEN.B2   TECHEN       B2IL0020700352010000000000005010620020000000000
0202070050THEN.B3   TECHEN       B3IL0020700501010000000000005010620020000000000
0200795013THF       TEHOF          IL0007950137010000000000001010960030000000000
0200645010TIBO      TIBON VEAL     IL0006450105010000000000001010960010000000000
0200300012TIVA      TIV            IL0003000127010000000000001010960020000000000
0201084227TLKR      TELKOOR TELECOMIL0010842271010000000000001010960040000000000
0201093947TLSR25.2  TALI SHORT 25 2IL0010939473010000000000033010970040000000000
0200354019TLSY      TELSYS         IL0003540197010000000000001010940010000000000
0203960028TMBU      TAMBUR         IL0039600288010000000000001010960060000000000
0203960044TMBU.C1   TAMBUR       C1IL0039600445010000000000003010960060000000000
0203960036TMBU.W1   TAMBUR       W1IL0039600361010000000000002010960060000000000
0201080399TMMR      TMM            IL0010803992010000000000001010940020000000000
0200805010TMPO      TEMPO          IL0008050101010000000000001010960010000000000
0201083419TNPV      TECHNOPLUS VENTIL0010834195010000000000001010970010000000000
0200257014TOBJ      TOBIAS         IL0002570146010000000000001010960080000000000
0201094168TOPMD     TOPSPIN MEDICAL            010000000000001010960040000000000
0201094176TOPMD.W1  TOPSPIN MED  W1            010000000000002010960040000000000
0200206011TOPR      TOPPER         IL0002060114010000000000001010970010000000000
0200271015TREN      TRENDLINE      IL0002710155010000000000001010940040000000000
0200525014TRSC      TRANSCLAL      IL0005250142010000000000001010940020000000000
0200556019TRTP      TREE TOP       IL0005560193010000000000001010970010000000000
0208061012TR1016    TREASR BND 1016IL0080610129010000000000008010800010000000000
0208061111TR1116    TREASR BND 1116IL0080611119010000000000008010800010000000000
0208770117TR117     TREASR BND 117 IL0087701178010000000000008010800010000000000
0208061210TR1216    TREASR BND 1216IL0080612109010000000000008010800010000000000
0208060212TR216     TREASR BND 216 IL0080602126010000000000008010800010000000000
0208060311TR316      TREASR BND 316IL0080603116010000000000008010800010000000000
0208060410TR416     TREASR BND 416 IL0080604106010000000000008010800010000000000
0208060519TR516     TREASR BND 516 IL0080605194010000000000008010800010000000000
0208060618TR616     TREASR BND 616 IL0080606184010000000000008010800010000000000
0208060717TR716     TREASR BND 716 IL0080607174010000000000008010800010000000000
0208060816TR816     TREASR BND 816 IL0080608164010000000000008010800010000000000
0208060915TR916      TREASR BND 916IL0080609154010000000000008010800010000000000
0201086842TSEM.C1   TOWER        C1IL0010868425010000000000003010960040000000000
0201086834TSEM.W1   TOWER        W1IL0010868342010000000000002010960040000000000
0201087386TSEM.W2   TOWER        W2IL0010873862010000000000002010960040000000000
0200391011TSMR-M         TSAMAROT-MIL0003910119010000000000001010950010000000000
0201084185TSNT      TESNET 0.01    IL0010841851010000000000001010940040000000000
0200454017TUBE      TUBE           IL0004540170010000000000001010960030000000000
0200514018TUTN      TUTTNAUER      IL0005140186010000000000001010960040000000000
0200290023TUZA      TEUZA          IL0002900236010000000000001010970010000000000
0200133017TYCO      TAYA COMM      IL0001330179010000000000001010940020000000000
0200361014TZMI      ZMIHA          IL0003610149010000000000001010970010000000000
0200219014UNDR      UNIDRESS       IL0002190143010000000000001010960020000000000
0201090356UNIT.C1   UNITRONICS   C1IL0010903560010000000000003010960040000000000
0201090349UNIT.W1   UNITRONICS   W1IL0010903495010000000000002010960040000000000
0200316018UNIV      UNIVERCOL      IL0003160186010000000000001010960060000000000
0203160025UNIV.C1   UNIVERCOL    C1IL0031600252010000000000003010960060000000000
0200397018UNMI      UNAMI          IL0003970188010000000000001010970010000000000
0200722314UNON      UNION          IL0007223147010000000000001010900010000000000
0201092766UNON.B1   UNION        B1IL0010927668010000000000005010620020000000000
0207220023UNON.W1   UNION        W1IL0072200236010000000000002010900010000000000
0200770016URDN      URDAN          IL0007700169010000000000001010960080000000000
0207700131URDN.C3   URDAN        C3IL0077001316010000000000003010960080000000000
0207700123URDN.W7   URDAN        W7IL0077001233010000000000002010960080000000000
0200484014UREL-M    URIELI-M       IL0004840141010000000000001010950010000000000
0200416016VILR      VILLAR         IL0004160169010000000000001010950010000000000
0204160057VILR.C2   VULLAR       C2IL0041600573010000000000003010950010000000000
0204160073VILR.W4   VILLAR       W4IL0041600730010000000000002010950010000000000
0200350017VISN         VISION SIGMAIL0003500175010000000000001010960040000000000
0200157016VITA      VITA-GALILEE   IL0001570162010000000000001010960010000000000
0200246017VLCA      VULCAN         IL0002460173010000000000001010960040000000000
0201080415WALA                WALLAIL0010804156010000000000001010940040000000000
0201089754WALA.W3   WALLA        W3IL0010897549010000000000002010940040000000000
0200114017WDNN      WARDINON       IL0001140172010000000000001010970010000000000
0200371013WLFD      WILLY FOOD     IL0003710139010000000000001010940010000000000
0203710092WLFD.B2   WILLY FOOD   B2IL0037100927010000000000005010620020000000000
0203710100WLFD.C3   WILLY FOOD   C3IL0037101008010000000000003010940010000000000
0203710050WLFD.W1   WILLY FOOD   W1IL0037100505010000000000002010940010000000000
0203710118WLFD.W2   WILLY FOOD   W2IL0037101180010000000000002010940010000000000
0200213017WLGR      WILLIGER       IL0002130172010000000000001010960010000000000
0208110017WLMN.B1   WALFMAN      B1IL0081100179010000000000005010620020000000000
0200811018WLMN1     WALFMAN       1IL0008110186010000000000001010960050000000000
0200811034WLMN5     WALFMAN       5IL0008110343010000000000001010960050000000000
0201085810WRDT      WARDINON TEXTILIL0010858103010000000000001010960020000000000
0200103010WRGR       WORLD HOLDINGSIL0001030100010000000000001010970010000000000
0201030048WRGR.C1    WORLD HOLD  C1IL0010300486010000000000003010970010000000000
0201030055WRGR.W3    WORLD HOLD  W3IL0010300551010000000000002010970010000000000
0200135012WRSH       WORLD SHIPPINGIL0001350128010000000000001010940020000000000
0201350107WRSH.C2   WORLD SHIP   C2IL0013501072010000000000003010940020000000000
0201350115WRSH.W4   WORLD SHIP   W4IL0013501155010000000000002010940020000000000
0200249011YAAD      YAAD           IL0002490113010000000000001010970010000000000
0200418012YADE      YAD            IL0004180126010000000000001010940040000000000
0201080803YAMT-M            YAMIT-MIL0010808033010000000000001010940030000000000
0200683318YSR-M     YAASOUR-M      IL0006833185010000000000001010950010000000000
0200591016YTNG      YTONG          IL0005910166010000000000001010960050000000000
0200666016YUVA      YUVAL          IL0006660166010000000000001010950010000000000
0200823013ZIKA      ZIKA           IL0008230133010000000000001010970010000000000
0200661017ZINO      ZINOMETAL      IL0006610179010000000000001010960030000000000
0208129991ZION.B1   ZION HOLDING B1IL0081299914010000000000005010620020000000000
0200130013ZNKL      ZANLAKOL       IL0001300131010000000000001010960010000000000
0200261016ZOAR-M            ZOHAR-MIL0002610165010000000000001010950010000000000
0201080274ZOKO      ZOKO           IL0010802747010000000000001010940010000000000
0200730010ZUR       ZUR            IL0007300101010000000000001010970010000000000
0207300080ZUR.B5             ZUR B5IL0073000809010000000000005010620020000000000
0200730028ZUR.P1    ZUR          P1IL0007300283010000000000001080970010000000000
0201082304          OPTOMEDIC      IL0010823040020000000000001010000000000000000
0201082320          NOGA MECHANICA IL0010823206020000000000001010000000000000000
0201082338          ORBOTECH       IL0010823388020000000000001010000000000000000
0201082361          TECNOMATIX     IL0010823610020000000000001010000000000000000
0201082387          T T I          IL0010823875020000000000001010000000000000000
0201082395          VOCALTEC       IL0010823958020000000000001010000000000000000
0201082411          CHECK POINT    IL0010824113020000000000001010000000000000000
0201082429          CIMATRON       IL0010824295020000000000001010000000000000000
0201082445          ECI            IL0010824451020000000000001010000000000000000
0201082452          ELBIT VISION   IL0010824527020000000000001010000000000000000
0201082460          ENGEL DEVELOPRSIL0010824600020000000000001010000000000000000
0201082478          LUMENIS        IL0010824782020000000000001010000000000000000
0201082502          GALILEO        IL0010825029020000000000001010000000000000000
0201082528          HEALTHCARE     IL0010825284020000000000001010000000000000000
0201082536          I I S          IL0010825367020000000000001010000000000000000
0201082569          ELSCINT        IL0010825698020000000000001010000000000000000
0201082577          ETZ LAVUD      IL0010825771020000000000001010000000000000000
0201082593          MEDIS EL       IL0010825938020000000000001010000000000000000
0201082619          MER TELMANAGEN.IL0010826191020000000000001010000000000000000
0201082627          NEXUS          IL0010826274020000000000001010000000000000000
0201082635          NOR MACRO.     IL0010826357020000000000001010000000000000000
0201082643          OPTISYSTEMS    IL0010826431020000000000001010000000000000000
0201082650          RADA           IL0010826506020000000000001010000000000000000
0201082668          RADCOM         IL0010826688020000000000001010000000000000000
0201082676          RIT            IL0010826761020000000000001010000000000000000
0201082684          SCAN VEC       IL0010826845020000000000001010000000000000000
0201082700          T V G          IL0010827009020000000000001010000000000000000
0201082718          TARO PHARMAC.  IL0010827181020000000000001010000000000000000
0201082734          TOP IMAGE      IL0010827348020000000000001010000000000000000
0201082742          WIZTEC         IL0010827421020000000000001010000000000000000
0201082767          B V R SYSTEMS  IL0010827678020000000000001010000000000000000
0201082783          LANGUAGEWARE   IL0010827835020000000000001010000000000000000
0201082791          AREL           IL0010827918020000000000001010000000000000000
0201082809          ARZAN          IL0010828098020000000000001010000000000000000
0201082825          TECHNOPRISES   IL0010828254020000000000001010000000000000000
0201082833          ARIELY         IL0010828338020000000000001010000000000000000
0201082841          ALTEK          IL0010828411020000000000001010000000000000000
0201082858          WILLI FOOD INTEIL0010828585020000000000001010000000000000000
0201082866          GENESIS        IL0010828668020000000000001010000000000000000
0201082874                 MENTERGYIL0010828742020000000000001010000000000000000
0201082882          ATTUNITY       IL0010828825020000000000001010000000000000000
0201082890          SIMPLAYER      IL0010828908020000000000001010000000000000000
0201082908          M-SYSTEMS      IL0010829088020000000000001010000000000000000
0201082924          E-SIM (EMULTEK)IL0010829245020000000000001010000000000000000
0201082932          STAV           IL0010829328020000000000001010000000000000000
0201082957          BACKWEB        IL0010829575020000000000001010000000000000000
0201082999          BATM           IL0010829997020000000000001010000000000000000
0201083005          DMATEK         IL0010830052020000000000001010000000000000000
0201083013          SELECTOR       IL0010830136020000000000001010000000000000000
0201083021          GEO INTERACTIVEIL0010830219020000000000001010000000000000000
0201083039          PAYTON PLANAR  IL0010830391020000000000001010000000000000000
0201083047          PRO-LASER      IL0010830474020000000000001010000000000000000
0201083054          VCON           IL0010830540020000000000001010000000000000000
0201083062          ASTRA          IL0010830623020000000000001010000000000000000
0201083070          WIZCOM         IL0010830706020000000000001010000000000000000
0201083088          IT THEATERS    IL0010830888020000000000001010000000000000000
0201083096          SOPERCOM       IL0010830961020000000000001010000000000000000
0201083104           ISTEC INDUSTR.IL0010831043020000000000001010000000000000000
0201083112          ROBOMATIX      IL0010831126020000000000001010000000000000000
0201083120          COMET          IL0010831209020000000000001010000000000000000
0201083138          SHELLCASE      IL0010831381020000000000001010000000000000000
0201083146          S E A          IL0010831464020000000000001010000000000000000
0201083153          NORO TECH      IL0010831530020000000000001010000000000000000
0201083161          OPTIBASE       IL0010831613020000000000001010000000000000000
0201083179          CARMEL CONTAIN.IL0010831795020000000000001010000000000000000
0201083229          C M T          IL0010832298020000000000001010000000000000000
0201083237          COMMTOUCH      IL0010832371020000000000001010000000000000000
0201083468          O T I          IL0010834682020000000000001010000000000000000
0201083724                    A.V.TIL0010837248020000000000001010000000000000000
0201083773          VISIONIX       IL0010837735020000000000001010000000000000000
0201083781          ORIDION        IL0010837818020000000000001010000000000000000
0201083799          CARD GUARD     IL0010837990020000000000001010000000000000000
0201083807          ORAD           IL0010838071020000000000001010000000000000000
0201083815          RT SET         IL0010838154020000000000001010000000000000000
0201083823          ECTEL          IL0010838238020000000000001010000000000000000
0201084631          MEDIVISION     IL0010846314020000000000001010000000000000000
0201084938                   ACCORDIL0010849383020000000000001010000000000000000
0201085174                  RADVIEWIL0010851744020000000000001010000000000000000
0201085539                   PEPTORIL0010855398020000000000001010000000000000000
0201085679           ANYSOFT PREF.BIL0010856792020000000000001110000000000000000
0201085687                     CROWIL0010856875020000000000001010000000000000000
